S315080000003009002001010008090100080B01000859
S315080000100D0100080F01000811010008000000008A
S3150800002000000000000000000000000013010008A6
S31508000030150100080000000017010008C510000897
S31508000040190100081901000819010008190100081A
S31508000050190100081901000819010008190100080A
S3150800006019010008190100081901000819010008FA
S3150800007019010008190100081901000819010008EA
S3150800008019010008190100081901000819010008DA
S3150800009019010008190100081901000819010008CA
S315080000A019010008190100081901000819010008BA
S315080000B019010008190100081901000819010008AA
S315080000C0190100081901000819010008190100089A
S315080000D0190100081901000819010008190100088A
S315080000E0190100081901000819010008DFF80CD0E9
S315080000F000F028F80048004741160008300900209B
S315080001000648804706480047FEE7FEE7FEE7FEE7A3
S31508000110FEE7FEE7FEE7FEE7FEE7000079110008C6
S31508000120ED000008202A04DB203A21FA02F000211B
S31508000130704721FA02F3D040C2F1200291400843E9
S3150800014019467047064C074D06E0E06840F0010383
S3150800015094E8070098471034AC42F6D3FFF7CAFF75
S31508000160701600089016000800F0B9F8FCE70000C1
S3150800017010B500F085F8012812D00A4C207801281D
S315080001800ED101F01DF8D4E90112114401F5FA71F6
S31508000190884205D300202070BDE8104000F0B8B8AA
S315080001A010BD00001800002010B504490120087091
S315080001B000F006F8BDE81040FFF7DABF1800002087
S315080001C010B5044C2078012802D100F0F9FFA06090
S315080001D010BD00001800002010B500F084F800F0EB
S315080001E079F800F0F5FF00F059FE00F03DF8BDE89B
S315080001F01040FFF7D9BF10B500F071F801F002F80A
S3150800020000F046F8BDE81040FFF7B2BF704700009F
S3150800021009480078002807D0012807D0022807D007
S31508000220032807D0402070474020704700207047B9
S3150800023000207047002070472400002009480078F5
S31508000240002807D0012807D0022807D0032807D09E
S3150800025040207047402070470020704700207047B4
S31508000260002070472400002010B501F02BF900F09B
S3150800027075FE02490020087010BD00002400002009
S3150800028010B5002401F02CF900B10124204610BD58
S3150800029008B56946064800F095FE012807D10549C4
S315080002A0002008709DF80010014801F023F908BDE8
S315080002B0580000202400002010B5054A1278002AAC
S315080002C002D1C9B200F0D4FEBDE8104001F07EB9F3
S315080002D024000020AFF30080642000F0AFBDAFF328
S315080002E0008000F0B1BDAFF3008072B6704762B609
S315080002F0704770B505460C46164605E014F8010B1E
S3150800030005F8010BFFF7EBFF761EB6B2F6D270BD05
S3150800031010B500F0C5FD002818D000F01DF800281B
S3150800032014D0FFF773FF00F027FA00F063FF00F020
S31508000330B3FD074908400749086000F0ADFD446869
S31508000340FFF7D5FFA446BDE81040604710BD000082
S3150800035080FFFF1F08ED00E010B509494FF484201F
S31508000360896888430004000C06D00020012805D0BF
S3150800037000F05EFD012010BD0120F7E7002010BD4A
S315080003800010014006490020C8610648016941F08D
S3150800039004010161016941F04001016170470000F3
S315080003A03800002000200240064A0021D161064993
S315080003B00A6942F002020A614861086940F0400091
S315080003C0086170473800002000200240044B0022D4
S315080003D0DA61044A136943F0010313610180704727
S315080003E0380000200020024000201449CA68D306BD
S315080003F0134A04D5D06940F00200D0611020CB68BA
S315080004005B0705D5D36943F00103D36140F00400C7
S31508000410CB69DB0707D0D36943F00403D361CA6904
S3150800042022F00102CA61A0F58072013A01D0C860C3
S315080004307047C86920F00100C86170470020024073
S315080004403800002070B5044600F05EFA0546114EE5
S3150800045009E0601C07D024B100F056FA401BA04200
S3150800046001D9032070BDF068C007F2D1F068800694
S3150800047001D52020F060F068C00605D4F069C007F1
S3150800048002D1F068400703D5FFF7AEFF012070BD23
S31508000490002070BD002002402DE9F04704460D46B5
S315080004A016461F464FEA55294FEA49292068401C37
S315080004B004D14946204600F09BF838B320684845E1
S315080004C005D04946204600F0A5F8044604B320683E
S315080004D0281A05192D1D4FF4007809F50079FFF73C
S315080004E0FEFE281B001F404506D34946204600F05D
S315080004F091F8044674B1251D16F8010B05F8010B91
S315080005007F1E002FEBD10120BDE8F0870020FBE716
S315080005100020F9E70020F7E710B50B480068401CF3
S3150800052003D0094800F0DCF848B108480068401CC8
S3150800053003D0064800F0D4F818B1012010BD0020F9
S3150800054010BD002010BD0000E8020020E4000020D5
S31508000550F0B585B00027049701261C4B4A1E1C1AC5
S31508000560944202D2002005B0F0BD820A9202184CCD
S31508000570A24203D34418641E9C4201D90020F2E724
S31508000580801A0844C0F38F25800501D06D1CADB2D2
S31508000590009702920120039000F0A2F900240EE0D1
S315080005A0FFF79DFE04A9684600F0F6F808B1002694
S315080005B007E0029800F580600290641CA4B2AC4281
S315080005C0EED300F03DF93046CDE70000FFFF010805
S315080005D000200008004870470020000803494FF033
S315080005E0FF30086001F5017108607047E4000020DB
S315080005F010B5CA0501D0002010BD02688A4201D193
S31508000600012010BD02C04FF40072FFF772FE0120F0
S3150800061010BD000070B504460D460D48844202D14F
S31508000620A0F5017409E00B48854202D1084C05463D
S3150800063003E0204600F054F830B129462046FFF77B
S31508000640D7FF18B1204670BD002070BD002070BDD0
S31508000650E8020020002000080B480168426811449F
S3150800066082681144C26811440269114442691144FE
S3150800067082691144D0F8EC000844002801D0002013
S3150800068070470120704700000020000830B4104B66
S315080006904C1E1D1AA54202D2002030BC70470D4CD4
S315080006A0A04203D345186D1E9D4201D90020F4E7E8
S315080006B0430A5B02A34205D10B46014630BC0648F5
S315080006C0FFF7EABE0B46014630BC0448FFF7E4BE16
S315080006D0FFFF010800200008E8020020E4000020CF
S315080006E02DE9F04106464FF0010800F0F9F800241C
S315080006F0306800EB840706EB84004568FFF7EFFDDA
S315080007002A4600233946022000F0A4F810B14FF01B
S31508000710000808E03868A84202D04FF0000802E056
S31508000720641C802CE4D300F08BF84046BDE8F081C9
S3150800073008B5002000900E480168491C15D041688C
S3150800074082681144C268114402691144426911441D
S3150800075082691144C0690844C043401C00906A4637
S3150800076004210448FFF792FF08BD012008BD0000D8
S31508000770E8020020EC20000810B506484FF0FF31CB
S31508000780C16000220261C160C26000F0F3F8002077
S3150800079010BD0000001002402DE9F04705460F463F
S315080007A04FF0010ADFF8908098F8180001280DD05C
S315080007B0012088F818002868204E4CF25039022883
S315080007C007D04846FFF73EFE98B12FE00220BDE865
S315080007D0F0874846FFF736FEF8B90120FFF7D2FD45
S315080007E04846FFF72FFE8246306920F00400306144
S315080007F01CE04FF0FF303860AC6811E02046FFF788
S31508000800D3FD4846FFF71EFE8246306920F00200F7
S3150800081030615FEA0A0001D03C6007E004F58064B5
S31508000820D5E9020100EB8120A042E7D8002088F82C
S3150800083018005046CBE70000380000200020024090
S315080008400348016941F080010161002070470000FA
S31508000850002002402DE9F05F0746884615461E46E9
S315080008600024DFF8749099F81800012809D00120AF
S3150800087089F818004CF2503B5846FFF7E3FD18B1CB
S3150800088026E00220BDE8F09F012F05D0022F05D0F3
S315080008900427DFF848A019E00127FAE70227F8E756
S315080008A0220128463146FFF73DFC81B208EB440099
S315080008B0FFF78CFD5846FFF7C5FDDAF8101021F052
S315080008C00101CAF8101018B9641CE4B2BC42E7D397
S315080008D0002189F81810D5E73800002000200240CA
S315080008E0002006490A69120607D5054A4A60054ADC
S315080008F04A600969090600D50120704700200240B0
S3150800090023016745AB89EFCD00F05ABC10B50748FF
S31508000910016841F010010160032000F0BFF80020D3
S3150800092000F006F800F04AF8002010BD002002404A
S3150800093070B504460D4D4FF47A712878B1FBF0F086
S315080009400B490968B1FBF0F000F0BAF808B10120CC
S3150800095070BD102C07D200222146501E00F07EF8EA
S315080009606C60002070BD012070BD000000000020F2
S315080009700C00002010B500F0A1F90D4800F0E0F8D1
S315080009800C4800F0DDF84FF4804000F0B5F8102070
S3150800099000F0B2F8042000F0AFF80748C16921F06A
S315080009A08051C161BDE81040012000F0A5B80000E3
S315080009B000100140000801400010024070B586B0E2
S315080009C0012000F0A1F81F48C16941F08051C161BA
S315080009D0C06900F080500090042000F095F81020BF
S315080009E000F092F84FF4804000F08EF840F2044090
S315080009F00190012002900220039000260496124DD1
S31508000A0001A9284600F0DEF804246C610F4901911B
S31508000A10029401A9284600F0D5F80D48019009204E
S31508000A2002900320039004960A4D01A9284600F077
S31508000A30C9F809490191029401A9284600F0C2F8AB
S31508000A4006B070BD001002400010014020002004CE
S31508000A50020002040008014004000404F0B40D4634
S31508000A600D4B1B68C3F30223C3F10704042C00D9FA
S31508000A700424191D072901D2002300E0DB1E0126E4
S31508000A8006FA04F1491E294099409E40761E1640F2
S31508000A903143F0BC00F0B5BD0CED00E000F00701F5
S31508000AA0054A10684FF6FF03184040EA012003493B
S31508000AB008431060704700000CED00E00000FA05DE
S31508000AC010B5401EB0F1807F01D3012010BD4FF054
S31508000AD0E02460610F21601700F093FD0020A061FB
S31508000AE007202061002010BD10B5FFF70FFFBDE8F5
S31508000AF0104000F0E9BA000002498A6982438A6117
S31508000B00704700000010024008B504498A6902438C
S31508000B108A6189690140009108BD00000010024001
S31508000B200249CA680243CA607047000000100240C2
S31508000B300249CA688243CA60704700000010024032
S31508000B4010B500241A49884206D10420FFF7E8FFA9
S31508000B500420FFF7EDFF28E01649884206D1082051
S31508000B60FFF7DEFF0820FFF7E3FF1EE01249884281
S31508000B7006D11020FFF7D4FF1020FFF7D9FF14E0A5
S31508000B800E49884206D12020FFF7CAFF2020FFF72A
S31508000B90CFFF0AE00A49884206D14020FFF7C0FF86
S31508000BA04020FFF7C5FF00E00124204610BD0000E5
S31508000BB000080140000C01400010014000140140EB
S31508000BC0001801402DE9F0410A68C2F30F2595FA8D
S31508000BD0A5F2B2FA82F26BE0012393402B4266D06B
S31508000BE0082A03D240F20113934006E0A2F1080353
S31508000BF04FF001149C4044F080634E6800EB136488
S31508000C0093FAA3FCBCFA8CFC4FEA8C084FF00F0C45
S31508000C1027680CFA08FC27EA0C0793FAA3FCBCFA27
S31508000C208CFC4FEA8C0C06FA0CF6374327600E69E3
S31508000C30C7684FEA132C9CFAACFCBCFA8CFC27EA72
S31508000C40132706FA0CF63743C7604E68012E01D003
S31508000C50092E2CD18F6893FAA3FCBCFA8CFC4FEAB8
S31508000C608C084FF0030C26680CFA08FC26EA0C06DA
S31508000C7093FAA3FCBCFA8CFC4FEA8C0C07FA0CF727
S31508000C803E432660CF6893FAA3FCBCFA8CFC4FEA75
S31508000C908C084FF0040C0CFA08FC93FAA3F3B3FA89
S31508000CA083F39B0026EA0C069F403E432660521CAF
S31508000CB035FA02F390D10020BDE8F08116480168A4
S31508000CC041F0010101600168C1F340010029FAD031
S31508000CD0416821F003014160416801F00C010029D7
S31508000CE0FAD1016821F0807101600168C1F34061A1
S31508000CF00029FAD14160026822F450220260026893
S31508000D0022F0F80242F0800202608160416A41F0F6
S31508000D1080714162002070470010024000B503460A
S31508000D2000F0ECF8186000F0BFF8586000F0CAF858
S31508000D309860586800F0D4F8D86000BD014908608A
S31508000D40704700000C0000202DE9FF4104460E46BE
S31508000D5001270025E068C0F3403000285DD1F1681E
S31508000D607068E2680843316941F20C639A4311439B
S31508000D700843E060B068216921F4405101432161CC
S31508000D807069616921F44071014361616846FFF742
S31508000D90C5FF2448844201D1039D08E022488442C5
S31508000DA001D1029D03E02148844200D1029DA5B3EA
S31508000DB0306890B3002705EBC50101EB05118000EB
S31508000DC0B1FBF0F36422B3FBF2F36FF0180673433A
S31508000DD0B1FBF0F5B1FBF0F605EB8305322303EB27
S31508000DE00515B5FBF2F5B6FBF2F605F0F00505EBD1
S31508000DF00615B1FBF0F6B1FBF0F0B0FBF2F06FF0C0
S31508000E001801484306EB800003EB0010B0FBF2F034
S31508000E1000F00F00284480B2A06004B03846BDE850
S31508000E20F0810000003801400044004000480040BE
S31508000E300149042048617047001001400149488073
S31508000E40704700001000002010B500F0B9F90A4CF0
S31508000E50616888420BD322780849042042B10022EF
S31508000E602270486100F0ACF961880844606010BDE2
S31508000E70012222700861F5E71000002000100140E9
S31508000E8010B5FFF755FC18B1BDE81040FFF744BB95
S31508000E90002010BDFFF75CBBFFF79CBBFFF79EBBAE
S31508000EA0FFF7DABBFFF7F2BB0449496801F0F00126
S31508000EB0034A0909515CC840704700000010024007
S31508000EC04E1600080449496801F4E061034A02EB3A
S31508000ED011210978C8407047001002405E160008C4
S31508000EE00449496801F46051034A02EBD1210978A3
S31508000EF0C8407047001002405E1600080648406861
S31508000F0000F00C010548002905D0042903D008295A
S31508000F1001D100F005B870470010024000127A00AF
S31508000F200C4A506800F480300B49002809D0B0F507
S31508000F30803F06D15068C0F34040401C4900B1FBD1
S31508000F40F0F1506800F47010022202EB904048431A
S31508000F50704700000010024000093D0010B588B037
S31508000F60104CE06820F40050E0604FF461400190B6
S31508000F7000200290039004900C210591069001A987
S31508000F802046FFF7E1FE206920F490402061606961
S31508000F9020F02A006061E06840F40050E06008B084
S31508000FA010BD00000038014005490A68C2F3401226
S31508000FB0002A03D049680170012070470020704755
S31508000FC0003801402DE9F04180460F461B4C0025AC
S31508000FD01B4E6078002810D020783044401CFFF75C
S31508000FE0E3FF012819D000F0EBF861686431884204
S31508000FF000D965700020BDE8F0811148FFF7D4FFDD
S315080010000128F7D13078401E3F28F3D800F0D8F8E9
S315080010106060257001206070ECE72078401CC2B241
S315080010202270307831469042E4D1491C4046FFF799
S3150800103060F96570207838700120DCE72800002008
S31508001040EC04002070B5094D686000F0B9F800F1AD
S315080010500A0405E0FFF743F900F0B2F8A04204D805
S315080010602868C0F3C0100028F4D070BD00380140CD
S3150800107070B505460E46402E03D96F2108A0FFF726
S3150800108073F83046FFF7DEFF002406E0FFF727F97E
S31508001090285DFFF7D7FF641CA4B2B442F6D370BD2F
S315080010A02E2E5C536F757263655C41524D434D330A
S315080010B05F53544D333246315C72733233322E638A
S315080010C0000000007047000010B52548016821F0AF
S315080010D0070141F002010160006800F007000228DC
S315080010E003D068211FA0FFF73FF82148016821F4C3
S315080010F080210160016841F4803101600168C1F313
S3150800110040410029FAD0416821F47C1141F4E811E4
S315080011104160016841F0807101600168C1F3406176
S315080011200029FAD0416821F0F0014160416821F4B4
S31508001130E06141F480614160416821F46051416099
S31508001140416821F0030141F002014160416801F064
S315080011500C010829FAD1BDE810400648FFF7EEBD94
S31508001160002002402E2E5C6D61696E2E6300000021
S315080011700010024000A24A040D48016841F001012E
S31508001180016041680B4A1140416001680A4A1140F2
S315080011900160016821F480210160416821F4FE01A3
S315080011A041604FF41F0181600449C003086070471D
S315080011B0001002400000FFF8FFFFF6FE08ED00E011
S315080011C000B500F01FF80148006800BD3000002097
S315080011D000B500F00FF84FF0E02004494161002106
S315080011E08161052202610248016000BD3F190100C4
S315080011F0300000204FF0E02000210161416181614B
S31508001200704700004FF0E0200069C00303D502488C
S315080012100168491C016070473000002010B5084C71
S31508001220FF21E1704168E21DA06C00F037F92071DA
S3150800123000206071A0710820A4F8440010BD0000C9
S315080012409800002070B500F0C9F90E4C01252570EC
S31508001250FF20E0700020102121716071FEF7D8FF91
S31508001260A071FEF7EBFFE071FEF7E8FF000A2072B7
S315080012706572A5720820A4F84400BDE87040FFF71F
S315080012800DBE00009800002010B5054C0020207007
S3150800129000F0A4F9FF20E0700120A4F8440010BD76
S315080012A0980000200748FF21C17007498164002182
S315080012B00171417181710721C0F807100821A0F852
S315080012C04410704798000020661600080648FF215B
S315080012D0C17000210171427842718171C171017238
S315080012E00621A0F8441070479800002070B50446FF
S315080012F0FEF78EFF6178801E884204DABDE87040EA
S31508001300222000F071B9104DFF20E8700120A5F8E1
S315080013104400617849B1A21CA86CFFF7C3FD68B107
S315080013206178A86C0844A86470BDFFF7A9FD002879
S31508001330FAD1BDE87040312000F056B9BDE87040DA
S31508001340312000F051B900009800002010B5084C73
S315080013504168A06CFFF79EFD28B1FF20E0700120D0
S31508001360A4F8440010BDBDE81040312000F03CB997
S315080013709800002070B50546FEF74AFF0B4C411E43
S315080013806A1CA06CFFF78EFD58B1FF20E070FEF7CF
S315080013903FFFA16C401E0844A0640120A4F8440045
S315080013A070BDBDE87040312000F01EB998000020DD
S315080013B0312000F019B9000010B5FEF7A9FF03485F
S315080013C0FF21C1700121A0F8441010BD980000202B
S315080013D070B5084CFF20E070002525716571FEF791
S315080013E017FFA071E571257265720720A4F84400FD
S315080013F070BD0000980000200449FF22CA704068AA
S3150800140088640120A1F84400704700009800002075
S3150800141070B50446FEF7FCFE6178401E884204DA81
S31508001420BDE87040222000F0DFB8094D6168A96464
S315080014306278281DFEF75DFFFF20E8706178A86CCA
S315080014400844A8646078401CA5F8440070BD0000F4
S3150800145098000020002000F0C7B8000070B50546C7
S31508001460FEF7D6FE6A78401E904204DABDE8704060
S31508001470222000F0B9B8084C201DA16CFEF739FFF0
S31508001480FF20E0706978A06C0844A0646878401C66
S31508001490A4F8440070BD0000980000202DE9F04132
S315080014A004460E461746002505E014F8010B2844A5
S315080014B0C5B2FEF714FF761E701CF6D13D600120FA
S315080014C0BDE8F081054800210170816480F8431069
S315080014D0A0F8441081704170704700009800002001
S315080014E003480078002801D0012070470020704783
S315080014F09800002010B50178334CFF290FD02278C8
S31508001500012A60D1F42921D013DCD02936D009DC90
S31508001510C92930D0CC293DD0CF293ED137E0FFF7B5
S3150800152091FE3DE0D1292FD0D2292AD0F32934D1F2
S3150800153012E0F5390A2930D2DFE801F0050B2F2F22
S315080015402F112F14171AFFF789FF29E0FFF760FFFD
S3150800155026E0FFF751FF23E0FFF760FE20E0FFF7E4
S31508001560A1FE1DE0FFF776FF1AE0FFF7AFFE17E0D2
S31508001570FFF78AFE14E0FFF7FDFE11E0FFF7B6FE5F
S315080015800EE0FFF725FF0BE0FFF7E0FE08E0FFF7A8
S3150800159013FF05E0FFF70CFF02E0202000F024F817
S315080015A094F84300012802D1102000F01DF8B4F980
S315080015B04410002907DD012284F84320E01CBDE819
S315080015C0104000F01BB810BD98000020024900200A
S315080015D081F8430070470000980000200149002068
S315080015E048707047980000200349FE22CA700871A7
S315080015F00220A1F8440070479800002089B2FEF73F
S315080016005BBE0907090E002804DB00F1E02080F81C
S315080016100014704700F00F0000F1E02080F8141D58
S31508001620704702E008C8121F08C1002AFAD170479D
S315080016307047002001E001C1121F002AFBD1704744
S31508001640FFF752FAFEF7C8FDFEF7D5FDFCE70000E6
S315080016500000000000000102030406070809000054
S315080016600000010203044F70656E424C54000000EE
S31508001670901600080000002034000000221600081A
S31508001680C416000834000020FC08000032160008C2
S315080016900100000010000000000000000024F40013
S315080016A0000000000000000000000000000000002C
S315080016B00000000004000000000000000000000018
S309080016C00000000018
S705080000ED05
