Component: ARM Compiler 5.06 update 6 (build 750) Tool: armlink [4d35ed]

==============================================================================

Section Cross References

    stm32f1xx_hal.o(i.HAL_DeInit) refers to main.o(i.HAL_MspDeInit) for HAL_MspDeInit
    stm32f1xx_hal.o(i.HAL_Delay) refers to timer.o(i.HAL_GetTick) for HAL_GetTick
    stm32f1xx_hal.o(i.HAL_Delay) refers to stm32f1xx_hal.o(.data) for .data
    stm32f1xx_hal.o(i.HAL_GetTick) refers to stm32f1xx_hal.o(.data) for .data
    stm32f1xx_hal.o(i.HAL_GetTickFreq) refers to stm32f1xx_hal.o(.data) for .data
    stm32f1xx_hal.o(i.HAL_GetTickPrio) refers to stm32f1xx_hal.o(.data) for .data
    stm32f1xx_hal.o(i.HAL_IncTick) refers to stm32f1xx_hal.o(.data) for .data
    stm32f1xx_hal.o(i.HAL_Init) refers to stm32f1xx_hal_cortex.o(i.HAL_NVIC_SetPriorityGrouping) for HAL_NVIC_SetPriorityGrouping
    stm32f1xx_hal.o(i.HAL_Init) refers to stm32f1xx_hal.o(i.HAL_InitTick) for HAL_InitTick
    stm32f1xx_hal.o(i.HAL_Init) refers to main.o(i.HAL_MspInit) for HAL_MspInit
    stm32f1xx_hal.o(i.HAL_InitTick) refers to stm32f1xx_hal_cortex.o(i.HAL_SYSTICK_Config) for HAL_SYSTICK_Config
    stm32f1xx_hal.o(i.HAL_InitTick) refers to stm32f1xx_hal_cortex.o(i.HAL_NVIC_SetPriority) for HAL_NVIC_SetPriority
    stm32f1xx_hal.o(i.HAL_InitTick) refers to stm32f1xx_hal.o(.data) for .data
    stm32f1xx_hal.o(i.HAL_InitTick) refers to system_stm32f1xx.o(.data) for SystemCoreClock
    stm32f1xx_hal.o(i.HAL_SetTickFreq) refers to stm32f1xx_hal.o(i.HAL_InitTick) for HAL_InitTick
    stm32f1xx_hal.o(i.HAL_SetTickFreq) refers to stm32f1xx_hal.o(.data) for .data
    stm32f1xx_hal_can.o(i.HAL_CAN_DeInit) refers to stm32f1xx_hal_can.o(i.HAL_CAN_Stop) for HAL_CAN_Stop
    stm32f1xx_hal_can.o(i.HAL_CAN_DeInit) refers to stm32f1xx_hal_can.o(i.HAL_CAN_MspDeInit) for HAL_CAN_MspDeInit
==============================================================================

Removing Unused input sections from the image.

    Removing stm32f1xx_hal.o(.rev16_text), (4 bytes).
    Removing stm32f1xx_hal.o(.revsh_text), (4 bytes).
    Removing stm32f1xx_hal.o(.rrx_text), (6 bytes).
    Removing stm32f1xx_hal.o(i.HAL_DBGMCU_DisableDBGSleepMode), (16 bytes).
    Removing stm32f1xx_hal.o(i.HAL_DBGMCU_DisableDBGStandbyMode), (16 bytes).
    Removing stm32f1xx_hal.o(i.HAL_DBGMCU_DisableDBGStopMode), (16 bytes).
    Removing stm32f1xx_hal.o(i.HAL_DBGMCU_EnableDBGSleepMode), (16 bytes).
    Removing stm32f1xx_hal.o(i.HAL_DBGMCU_EnableDBGStandbyMode), (16 bytes).
    Removing stm32f1xx_hal.o(i.HAL_DBGMCU_EnableDBGStopMode), (16 bytes).
    Removing stm32f1xx_hal.o(i.HAL_Delay), (36 bytes).
    Removing stm32f1xx_hal.o(i.HAL_GetDEVID), (16 bytes).
    Removing stm32f1xx_hal.o(i.HAL_GetHalVersion), (8 bytes).
    Removing stm32f1xx_hal.o(i.HAL_GetREVID), (12 bytes).
    Removing stm32f1xx_hal.o(i.HAL_GetTick), (12 bytes).
    Removing stm32f1xx_hal.o(i.HAL_GetTickFreq), (12 bytes).
    Removing stm32f1xx_hal.o(i.HAL_GetTickPrio), (12 bytes).
    Removing stm32f1xx_hal.o(i.HAL_GetUIDw0), (12 bytes).
    Removing stm32f1xx_hal.o(i.HAL_GetUIDw1), (12 bytes).
==============================================================================

Image Symbol Table

    Local Symbols

    Symbol Name                              Value     Ov Type        Size  Object(Section)

    ../clib/microlib/init/entry.s            0x00000000   Number         0  entry10a.o ABSOLUTE
    ../clib/microlib/init/entry.s            0x00000000   Number         0  entry8a.o ABSOLUTE
    ../clib/microlib/init/entry.s            0x00000000   Number         0  entry5.o ABSOLUTE
    ../clib/microlib/init/entry.s            0x00000000   Number         0  entry2.o ABSOLUTE
    ../clib/microlib/init/entry.s            0x00000000   Number         0  entry8b.o ABSOLUTE
    ../clib/microlib/init/entry.s            0x00000000   Number         0  entry9a.o ABSOLUTE
    ../clib/microlib/init/entry.s            0x00000000   Number         0  entry9b.o ABSOLUTE
    ../clib/microlib/init/entry.s            0x00000000   Number         0  entry.o ABSOLUTE
    ../clib/microlib/init/entry.s            0x00000000   Number         0  entry10b.o ABSOLUTE
    ../clib/microlib/init/entry.s            0x00000000   Number         0  entry11a.o ABSOLUTE
    ../clib/microlib/init/entry.s            0x00000000   Number         0  entry11b.o ABSOLUTE
    ../clib/microlib/init/entry.s            0x00000000   Number         0  entry7b.o ABSOLUTE
    ../clib/microlib/init/entry.s            0x00000000   Number         0  entry7a.o ABSOLUTE
    ../clib/microlib/longlong.c              0x00000000   Number         0  llushr.o ABSOLUTE
    ..\Source\ARMCM3_STM32F1\Keil\cpu_comp.c 0x00000000   Number         0  cpu_comp.o ABSOLUTE
    ..\Source\ARMCM3_STM32F1\can.c           0x00000000   Number         0  can.o ABSOLUTE
    ..\Source\ARMCM3_STM32F1\cpu.c           0x00000000   Number         0  cpu.o ABSOLUTE
    ..\Source\ARMCM3_STM32F1\flash.c         0x00000000   Number         0  flash.o ABSOLUTE
    ..\Source\ARMCM3_STM32F1\nvm.c           0x00000000   Number         0  nvm.o ABSOLUTE
    ..\Source\ARMCM3_STM32F1\rs232.c         0x00000000   Number         0  rs232.o ABSOLUTE
    ..\Source\ARMCM3_STM32F1\timer.c         0x00000000   Number         0  timer.o ABSOLUTE
    ..\Source\ARMCM3_STM32F1\usb.c           0x00000000   Number         0  usb.o ABSOLUTE
    ..\Source\asserts.c                      0x00000000   Number         0  asserts.o ABSOLUTE
    ..\Source\backdoor.c                     0x00000000   Number         0  backdoor.o ABSOLUTE
    ..\Source\boot.c                         0x00000000   Number         0  boot.o ABSOLUTE
    ..\Source\com.c                          0x00000000   Number         0  com.o ABSOLUTE
    ..\Source\cop.c                          0x00000000   Number         0  cop.o ABSOLUTE
    ..\Source\file.c                         0x00000000   Number         0  file.o ABSOLUTE
    ..\Source\net.c                          0x00000000   Number         0  net.o ABSOLUTE
    ..\Source\xcp.c                          0x00000000   Number         0  xcp.o ABSOLUTE
    ..\\Source\\ARMCM3_STM32F1\\cpu.c        0x00000000   Number         0  cpu.o ABSOLUTE
    ..\\Source\\ARMCM3_STM32F1\\flash.c      0x00000000   Number         0  flash.o ABSOLUTE
    ..\\Source\\ARMCM3_STM32F1\\rs232.c      0x00000000   Number         0  rs232.o ABSOLUTE
    ..\\Source\\ARMCM3_STM32F1\\timer.c      0x00000000   Number         0  timer.o ABSOLUTE
    ..\\hooks.c                              0x00000000   Number         0  hooks.o ABSOLUTE
    ..\\led.c                                0x00000000   Number         0  led.o ABSOLUTE
    ..\\lib\\STM32F1xx_HAL_Driver\\Src\\stm32f1xx_hal.c 0x00000000   Number         0  stm32f1xx_hal.o ABSOLUTE
    ..\\lib\\STM32F1xx_HAL_Driver\\Src\\stm32f1xx_hal_can.c 0x00000000   Number         0  stm32f1xx_hal_can.o ABSOLUTE
    ..\\lib\\STM32F1xx_HAL_Driver\\Src\\stm32f1xx_hal_cortex.c 0x00000000   Number         0  stm32f1xx_hal_cortex.o ABSOLUTE
    ..\\lib\\STM32F1xx_HAL_Driver\\Src\\stm32f1xx_hal_dma.c 0x00000000   Number         0  stm32f1xx_hal_dma.o ABSOLUTE
    ..\\lib\\STM32F1xx_HAL_Driver\\Src\\stm32f1xx_hal_exti.c 0x00000000   Number         0  stm32f1xx_hal_exti.o ABSOLUTE
    ..\\lib\\STM32F1xx_HAL_Driver\\Src\\stm32f1xx_hal_flash.c 0x00000000   Number         0  stm32f1xx_hal_flash.o ABSOLUTE
    ..\\lib\\STM32F1xx_HAL_Driver\\Src\\stm32f1xx_hal_flash_ex.c 0x00000000   Number         0  stm32f1xx_hal_flash_ex.o ABSOLUTE
    ..\\lib\\STM32F1xx_HAL_Driver\\Src\\stm32f1xx_hal_gpio.c 0x00000000   Number         0  stm32f1xx_hal_gpio.o ABSOLUTE
    ..\\lib\\STM32F1xx_HAL_Driver\\Src\\stm32f1xx_hal_gpio_ex.c 0x00000000   Number         0  stm32f1xx_hal_gpio_ex.o ABSOLUTE
    ..\\lib\\STM32F1xx_HAL_Driver\\Src\\stm32f1xx_hal_pwr.c 0x00000000   Number         0  stm32f1xx_hal_pwr.o ABSOLUTE
    ..\\lib\\STM32F1xx_HAL_Driver\\Src\\stm32f1xx_hal_rcc.c 0x00000000   Number         0  stm32f1xx_hal_rcc.o ABSOLUTE
    ..\\lib\\STM32F1xx_HAL_Driver\\Src\\stm32f1xx_hal_rcc_ex.c 0x00000000   Number         0  stm32f1xx_hal_rcc_ex.o ABSOLUTE
    ..\\lib\\STM32F1xx_HAL_Driver\\Src\\stm32f1xx_hal_tim.c 0x00000000   Number         0  stm32f1xx_hal_tim.o ABSOLUTE
    ..\\lib\\STM32F1xx_HAL_Driver\\Src\\stm32f1xx_hal_tim_ex.c 0x00000000   Number         0  stm32f1xx_hal_tim_ex.o ABSOLUTE
    ..\\lib\\STM32F1xx_HAL_Driver\\Src\\stm32f1xx_ll_dma.c 0x00000000   Number         0  stm32f1xx_ll_dma.o ABSOLUTE
    ..\\lib\\STM32F1xx_HAL_Driver\\Src\\stm32f1xx_ll_exti.c 0x00000000   Number         0  stm32f1xx_ll_exti.o ABSOLUTE
    ..\\lib\\STM32F1xx_HAL_Driver\\Src\\stm32f1xx_ll_gpio.c 0x00000000   Number         0  stm32f1xx_ll_gpio.o ABSOLUTE
    ..\\lib\\STM32F1xx_HAL_Driver\\Src\\stm32f1xx_ll_rcc.c 0x00000000   Number         0  stm32f1xx_ll_rcc.o ABSOLUTE
    ..\\lib\\STM32F1xx_HAL_Driver\\Src\\stm32f1xx_ll_usart.c 0x00000000   Number         0  stm32f1xx_ll_usart.o ABSOLUTE
    ..\\lib\\STM32F1xx_HAL_Driver\\Src\\stm32f1xx_ll_utils.c 0x00000000   Number         0  stm32f1xx_ll_utils.o ABSOLUTE
    ..\\lib\\system_stm32f1xx.c              0x00000000   Number         0  system_stm32f1xx.o ABSOLUTE
    ..\\main.c                               0x00000000   Number         0  main.o ABSOLUTE
    ..\hooks.c                               0x00000000   Number         0  hooks.o ABSOLUTE
    ..\led.c                                 0x00000000   Number         0  led.o ABSOLUTE
    ..\lib\STM32F1xx_HAL_Driver\Src\stm32f1xx_hal.c 0x00000000   Number         0  stm32f1xx_hal.o ABSOLUTE
    ..\lib\STM32F1xx_HAL_Driver\Src\stm32f1xx_hal_can.c 0x00000000   Number         0  stm32f1xx_hal_can.o ABSOLUTE
    ..\lib\STM32F1xx_HAL_Driver\Src\stm32f1xx_hal_cortex.c 0x00000000   Number         0  stm32f1xx_hal_cortex.o ABSOLUTE
    ..\lib\STM32F1xx_HAL_Driver\Src\stm32f1xx_hal_dma.c 0x00000000   Number         0  stm32f1xx_hal_dma.o ABSOLUTE
    ..\lib\STM32F1xx_HAL_Driver\Src\stm32f1xx_hal_exti.c 0x00000000   Number         0  stm32f1xx_hal_exti.o ABSOLUTE
    ..\lib\STM32F1xx_HAL_Driver\Src\stm32f1xx_hal_flash.c 0x00000000   Number         0  stm32f1xx_hal_flash.o ABSOLUTE
    ..\lib\STM32F1xx_HAL_Driver\Src\stm32f1xx_hal_flash_ex.c 0x00000000   Number         0  stm32f1xx_hal_flash_ex.o ABSOLUTE
    ..\lib\STM32F1xx_HAL_Driver\Src\stm32f1xx_hal_gpio.c 0x00000000   Number         0  stm32f1xx_hal_gpio.o ABSOLUTE
    ..\lib\STM32F1xx_HAL_Driver\Src\stm32f1xx_hal_gpio_ex.c 0x00000000   Number         0  stm32f1xx_hal_gpio_ex.o ABSOLUTE
    ..\lib\STM32F1xx_HAL_Driver\Src\stm32f1xx_hal_pwr.c 0x00000000   Number         0  stm32f1xx_hal_pwr.o ABSOLUTE
    ..\lib\STM32F1xx_HAL_Driver\Src\stm32f1xx_hal_rcc.c 0x00000000   Number         0  stm32f1xx_hal_rcc.o ABSOLUTE
    ..\lib\STM32F1xx_HAL_Driver\Src\stm32f1xx_hal_rcc_ex.c 0x00000000   Number         0  stm32f1xx_hal_rcc_ex.o ABSOLUTE
    ..\lib\STM32F1xx_HAL_Driver\Src\stm32f1xx_hal_tim.c 0x00000000   Number         0  stm32f1xx_hal_tim.o ABSOLUTE
    ..\lib\STM32F1xx_HAL_Driver\Src\stm32f1xx_hal_tim_ex.c 0x00000000   Number         0  stm32f1xx_hal_tim_ex.o ABSOLUTE
    ..\lib\STM32F1xx_HAL_Driver\Src\stm32f1xx_ll_dma.c 0x00000000   Number         0  stm32f1xx_ll_dma.o ABSOLUTE
    ..\lib\STM32F1xx_HAL_Driver\Src\stm32f1xx_ll_exti.c 0x00000000   Number         0  stm32f1xx_ll_exti.o ABSOLUTE
    ..\lib\STM32F1xx_HAL_Driver\Src\stm32f1xx_ll_gpio.c 0x00000000   Number         0  stm32f1xx_ll_gpio.o ABSOLUTE
    ..\lib\STM32F1xx_HAL_Driver\Src\stm32f1xx_ll_rcc.c 0x00000000   Number         0  stm32f1xx_ll_rcc.o ABSOLUTE
    ..\lib\STM32F1xx_HAL_Driver\Src\stm32f1xx_ll_usart.c 0x00000000   Number         0  stm32f1xx_ll_usart.o ABSOLUTE
    ..\lib\STM32F1xx_HAL_Driver\Src\stm32f1xx_ll_utils.c 0x00000000   Number         0  stm32f1xx_ll_utils.o ABSOLUTE
    ..\lib\system_stm32f1xx.c                0x00000000   Number         0  system_stm32f1xx.o ABSOLUTE
    ..\main.c                                0x00000000   Number         0  main.o ABSOLUTE
    ..\startup_stm32f103xb.s                 0x00000000   Number         0  startup_stm32f103xb.o ABSOLUTE
    dc.s                                     0x00000000   Number         0  dc.o ABSOLUTE
    handlers.s                               0x00000000   Number         0  handlers.o ABSOLUTE
    init.s                                   0x00000000   Number         0  init.o ABSOLUTE
    RESET                                    0x08000000   Section      236  startup_stm32f103xb.o(RESET)
    .ARM.Collect$$$$00000000                 0x080000ec   Section        0  entry.o(.ARM.Collect$$$$00000000)
    .ARM.Collect$$$$00000001                 0x080000ec   Section        4  entry2.o(.ARM.Collect$$$$00000001)
    .ARM.Collect$$$$00000004                 0x080000f0   Section        4  entry5.o(.ARM.Collect$$$$00000004)
    .ARM.Collect$$$$00000008                 0x080000f4   Section        0  entry7b.o(.ARM.Collect$$$$00000008)
    .ARM.Collect$$$$0000000A                 0x080000f4   Section        0  entry8b.o(.ARM.Collect$$$$0000000A)
    .ARM.Collect$$$$0000000B                 0x080000f4   Section        8  entry9a.o(.ARM.Collect$$$$0000000B)
    .ARM.Collect$$$$0000000D                 0x080000fc   Section        0  entry10a.o(.ARM.Collect$$$$0000000D)
    .ARM.Collect$$$$0000000F                 0x080000fc   Section        0  entry11a.o(.ARM.Collect$$$$0000000F)
    .ARM.Collect$$$$00002712                 0x080000fc   Section        4  entry2.o(.ARM.Collect$$$$00002712)
    __lit__00000000                          0x080000fc   Data           4  entry2.o(.ARM.Collect$$$$00002712)
    .text                                    0x08000100   Section       36  startup_stm32f103xb.o(.text)
    .text                                    0x08000124   Section        0  llushr.o(.text)
    .text                                    0x08000144   Section       36  init.o(.text)
    i.AssertFailure                          0x08000168   Section        0  asserts.o(i.AssertFailure)
    i.BackDoorCheck                          0x08000170   Section        0  backdoor.o(i.BackDoorCheck)
    i.BackDoorInit                           0x080001a8   Section        0  backdoor.o(i.BackDoorInit)
    i.BackDoorRestartTimer                   0x080001c0   Section        0  backdoor.o(i.BackDoorRestartTimer)
    i.BootInit                               0x080001d8   Section        0  boot.o(i.BootInit)
    i.BootTask                               0x080001f6   Section        0  boot.o(i.BootTask)
    i.ComFree                                0x0800020c   Section        0  com.o(i.ComFree)
    i.ComGetActiveInterfaceMaxRxLen          0x08000210   Section        0  com.o(i.ComGetActiveInterfaceMaxRxLen)
    i.ComGetActiveInterfaceMaxTxLen          0x0800023c   Section        0  com.o(i.ComGetActiveInterfaceMaxTxLen)
    i.ComInit                                0x08000268   Section        0  com.o(i.ComInit)
    i.ComIsConnected                         0x08000280   Section        0  com.o(i.ComIsConnected)
    i.ComTask                                0x08000290   Section        0  com.o(i.ComTask)
    i.ComTransmitPacket                      0x080002b8   Section        0  com.o(i.ComTransmitPacket)
    i.CopInit                                0x080002d4   Section        0  cop.o(i.CopInit)
    i.CopInitHook                            0x080002d8   Section        0  hooks.o(i.CopInitHook)
    i.CopService                             0x080002de   Section        0  cop.o(i.CopService)
    i.CopServiceHook                         0x080002e2   Section        0  hooks.o(i.CopServiceHook)
    i.CpuInit                                0x080002e6   Section        0  cpu.o(i.CpuInit)
    i.CpuIrqDisable                          0x080002ea   Section        0  cpu_comp.o(i.CpuIrqDisable)
    i.CpuIrqEnable                           0x080002ee   Section        0  cpu_comp.o(i.CpuIrqEnable)
    i.CpuMemCopy                             0x080002f2   Section        0  cpu.o(i.CpuMemCopy)
    i.CpuStartUserProgram                    0x08000310   Section        0  cpu.o(i.CpuStartUserProgram)
    i.CpuUserProgramStartHook                0x08000358   Section        0  hooks.o(i.CpuUserProgramStartHook)
    i.FLASH_MassErase                        0x08000384   Section        0  stm32f1xx_hal_flash_ex.o(i.FLASH_MassErase)
    FLASH_MassErase                          0x08000385   Thumb Code    26  stm32f1xx_hal_flash_ex.o(i.FLASH_MassErase)
    i.FLASH_PageErase                        0x080003a8   Section        0  stm32f1xx_hal_flash_ex.o(i.FLASH_PageErase)
    i.FLASH_Program_HalfWord                 0x080003cc   Section        0  stm32f1xx_hal_flash.o(i.FLASH_Program_HalfWord)
    FLASH_Program_HalfWord                   0x080003cd   Thumb Code    20  stm32f1xx_hal_flash.o(i.FLASH_Program_HalfWord)
    i.FLASH_SetErrorCode                     0x080003e8   Section        0  stm32f1xx_hal_flash.o(i.FLASH_SetErrorCode)
    FLASH_SetErrorCode                       0x080003e9   Thumb Code    84  stm32f1xx_hal_flash.o(i.FLASH_SetErrorCode)
    i.FLASH_WaitForLastOperation             0x08000444   Section        0  stm32f1xx_hal_flash.o(i.FLASH_WaitForLastOperation)
    i.FlashAddToBlock                        0x08000498   Section        0  flash.o(i.FlashAddToBlock)
    FlashAddToBlock                          0x08000499   Thumb Code   128  flash.o(i.FlashAddToBlock)
    i.FlashDone                              0x08000518   Section        0  flash.o(i.FlashDone)
    i.FlashErase                             0x08000550   Section        0  flash.o(i.FlashErase)
    i.FlashGetUserProgBaseAddress            0x080005d4   Section        0  flash.o(i.FlashGetUserProgBaseAddress)
    i.FlashInit                              0x080005dc   Section        0  flash.o(i.FlashInit)
    i.FlashInitBlock                         0x080005f0   Section        0  flash.o(i.FlashInitBlock)
    FlashInitBlock                           0x080005f1   Thumb Code    34  flash.o(i.FlashInitBlock)
    i.FlashSwitchBlock                       0x08000614   Section        0  flash.o(i.FlashSwitchBlock)
    FlashSwitchBlock                         0x08000615   Thumb Code    60  flash.o(i.FlashSwitchBlock)
    i.FlashVerifyChecksum                    0x08000658   Section        0  flash.o(i.FlashVerifyChecksum)
    i.FlashWrite                             0x0800068c   Section        0  flash.o(i.FlashWrite)
    i.FlashWriteBlock                        0x080006e0   Section        0  flash.o(i.FlashWriteBlock)
    FlashWriteBlock                          0x080006e1   Thumb Code    80  flash.o(i.FlashWriteBlock)
    i.FlashWriteChecksum                     0x08000730   Section        0  flash.o(i.FlashWriteChecksum)
    i.HAL_DeInit                             0x08000778   Section        0  stm32f1xx_hal.o(i.HAL_DeInit)
    i.HAL_FLASHEx_Erase                      0x08000798   Section        0  stm32f1xx_hal_flash_ex.o(i.HAL_FLASHEx_Erase)
    i.HAL_FLASH_Lock                         0x08000840   Section        0  stm32f1xx_hal_flash.o(i.HAL_FLASH_Lock)
    i.HAL_FLASH_Program                      0x08000854   Section        0  stm32f1xx_hal_flash.o(i.HAL_FLASH_Program)
    i.HAL_FLASH_Unlock                       0x080008e0   Section        0  stm32f1xx_hal_flash.o(i.HAL_FLASH_Unlock)
    i.HAL_GetTick                            0x08000908   Section        0  timer.o(i.HAL_GetTick)
    i.HAL_Init                               0x0800090c   Section        0  stm32f1xx_hal.o(i.HAL_Init)
    i.HAL_InitTick                           0x08000930   Section        0  stm32f1xx_hal.o(i.HAL_InitTick)
    i.HAL_MspDeInit                          0x08000974   Section        0  main.o(i.HAL_MspDeInit)
    i.HAL_MspInit                            0x080009bc   Section        0  main.o(i.HAL_MspInit)
    i.HAL_NVIC_SetPriority                   0x08000a5c   Section        0  stm32f1xx_hal_cortex.o(i.HAL_NVIC_SetPriority)
    i.HAL_NVIC_SetPriorityGrouping           0x08000a9c   Section        0  stm32f1xx_hal_cortex.o(i.HAL_NVIC_SetPriorityGrouping)
    i.HAL_SYSTICK_Config                     0x08000ac0   Section        0  stm32f1xx_hal_cortex.o(i.HAL_SYSTICK_Config)
    i.Init                                   0x08000ae8   Section        0  main.o(i.Init)
    Init                                     0x08000ae9   Thumb Code    14  main.o(i.Init)
    i.LL_APB2_GRP1_DisableClock              0x08000af8   Section        0  main.o(i.LL_APB2_GRP1_DisableClock)
    LL_APB2_GRP1_DisableClock                0x08000af9   Thumb Code    10  main.o(i.LL_APB2_GRP1_DisableClock)
    i.LL_APB2_GRP1_EnableClock               0x08000b08   Section        0  main.o(i.LL_APB2_GRP1_EnableClock)
    LL_APB2_GRP1_EnableClock                 0x08000b09   Thumb Code    18  main.o(i.LL_APB2_GRP1_EnableClock)
    i.LL_APB2_GRP1_ForceReset                0x08000b20   Section        0  stm32f1xx_ll_gpio.o(i.LL_APB2_GRP1_ForceReset)
    LL_APB2_GRP1_ForceReset                  0x08000b21   Thumb Code    10  stm32f1xx_ll_gpio.o(i.LL_APB2_GRP1_ForceReset)
    i.LL_APB2_GRP1_ReleaseReset              0x08000b30   Section        0  stm32f1xx_ll_gpio.o(i.LL_APB2_GRP1_ReleaseReset)
    LL_APB2_GRP1_ReleaseReset                0x08000b31   Thumb Code    10  stm32f1xx_ll_gpio.o(i.LL_APB2_GRP1_ReleaseReset)
    i.LL_GPIO_DeInit                         0x08000b40   Section        0  stm32f1xx_ll_gpio.o(i.LL_GPIO_DeInit)
    i.LL_GPIO_Init                           0x08000bc4   Section        0  stm32f1xx_ll_gpio.o(i.LL_GPIO_Init)
    i.LL_RCC_DeInit                          0x08000cbc   Section        0  stm32f1xx_ll_rcc.o(i.LL_RCC_DeInit)
    i.LL_RCC_GetSystemClocksFreq             0x08000d1c   Section        0  stm32f1xx_ll_rcc.o(i.LL_RCC_GetSystemClocksFreq)
    i.LL_SetSystemCoreClock                  0x08000d3c   Section        0  stm32f1xx_ll_utils.o(i.LL_SetSystemCoreClock)
    i.LL_USART_Init                          0x08000d48   Section        0  stm32f1xx_ll_usart.o(i.LL_USART_Init)
    i.LedBlinkExit                           0x08000e30   Section        0  led.o(i.LedBlinkExit)
    i.LedBlinkInit                           0x08000e3c   Section        0  led.o(i.LedBlinkInit)
    i.LedBlinkTask                           0x08000e48   Section        0  led.o(i.LedBlinkTask)
    i.NvmDone                                0x08000e80   Section        0  nvm.o(i.NvmDone)
    i.NvmErase                               0x08000e94   Section        0  nvm.o(i.NvmErase)
    i.NvmGetUserProgBaseAddress              0x08000e98   Section        0  nvm.o(i.NvmGetUserProgBaseAddress)
    i.NvmInit                                0x08000e9c   Section        0  nvm.o(i.NvmInit)
    i.NvmVerifyChecksum                      0x08000ea0   Section        0  nvm.o(i.NvmVerifyChecksum)
    i.NvmWrite                               0x08000ea4   Section        0  nvm.o(i.NvmWrite)
    i.RCC_GetHCLKClockFreq                   0x08000ea8   Section        0  stm32f1xx_ll_rcc.o(i.RCC_GetHCLKClockFreq)
    i.RCC_GetPCLK1ClockFreq                  0x08000ec4   Section        0  stm32f1xx_ll_rcc.o(i.RCC_GetPCLK1ClockFreq)
    i.RCC_GetPCLK2ClockFreq                  0x08000ee0   Section        0  stm32f1xx_ll_rcc.o(i.RCC_GetPCLK2ClockFreq)
    i.RCC_GetSystemClockFreq                 0x08000efc   Section        0  stm32f1xx_ll_rcc.o(i.RCC_GetSystemClockFreq)
    i.RCC_PLL_GetFreqDomain_SYS              0x08000f20   Section        0  stm32f1xx_ll_rcc.o(i.RCC_PLL_GetFreqDomain_SYS)
    i.Rs232Init                              0x08000f5c   Section        0  rs232.o(i.Rs232Init)
    i.Rs232ReceiveByte                       0x08000fa8   Section        0  rs232.o(i.Rs232ReceiveByte)
    Rs232ReceiveByte                         0x08000fa9   Thumb Code    24  rs232.o(i.Rs232ReceiveByte)
    i.Rs232ReceivePacket                     0x08000fc4   Section        0  rs232.o(i.Rs232ReceivePacket)
    i.Rs232TransmitByte                      0x08001044   Section        0  rs232.o(i.Rs232TransmitByte)
    Rs232TransmitByte                        0x08001045   Thumb Code    40  rs232.o(i.Rs232TransmitByte)
    i.Rs232TransmitPacket                    0x08001070   Section        0  rs232.o(i.Rs232TransmitPacket)
    i.SysTick_Handler                        0x080010c4   Section        0  timer.o(i.SysTick_Handler)
    i.SystemClock_Config                     0x080010c8   Section        0  main.o(i.SystemClock_Config)
    SystemClock_Config                       0x080010c9   Thumb Code   152  main.o(i.SystemClock_Config)
    i.SystemInit                             0x08001178   Section        0  system_stm32f1xx.o(i.SystemInit)
    i.TimerGet                               0x080011c0   Section        0  timer.o(i.TimerGet)
    i.TimerInit                              0x080011d0   Section        0  timer.o(i.TimerInit)
    i.TimerReset                             0x080011f4   Section        0  timer.o(i.TimerReset)
    i.TimerUpdate                            0x08001204   Section        0  timer.o(i.TimerUpdate)
    i.XcpCmdBuildCheckSum                    0x0800121c   Section        0  xcp.o(i.XcpCmdBuildCheckSum)
    XcpCmdBuildCheckSum                      0x0800121d   Thumb Code    34  xcp.o(i.XcpCmdBuildCheckSum)
    i.XcpCmdConnect                          0x08001244   Section        0  xcp.o(i.XcpCmdConnect)
    XcpCmdConnect                            0x08001245   Thumb Code    62  xcp.o(i.XcpCmdConnect)
    i.XcpCmdDisconnect                       0x08001288   Section        0  xcp.o(i.XcpCmdDisconnect)
    XcpCmdDisconnect                         0x08001289   Thumb Code    24  xcp.o(i.XcpCmdDisconnect)
    i.XcpCmdGetId                            0x080012a4   Section        0  xcp.o(i.XcpCmdGetId)
    XcpCmdGetId                              0x080012a5   Thumb Code    32  xcp.o(i.XcpCmdGetId)
    i.XcpCmdGetStatus                        0x080012cc   Section        0  xcp.o(i.XcpCmdGetStatus)
    XcpCmdGetStatus                          0x080012cd   Thumb Code    28  xcp.o(i.XcpCmdGetStatus)
    i.XcpCmdProgram                          0x080012ec   Section        0  xcp.o(i.XcpCmdProgram)
    XcpCmdProgram                            0x080012ed   Thumb Code    90  xcp.o(i.XcpCmdProgram)
    i.XcpCmdProgramClear                     0x0800134c   Section        0  xcp.o(i.XcpCmdProgramClear)
    XcpCmdProgramClear                       0x0800134d   Thumb Code    36  xcp.o(i.XcpCmdProgramClear)
    i.XcpCmdProgramMax                       0x08001374   Section        0  xcp.o(i.XcpCmdProgramMax)
    XcpCmdProgramMax                         0x08001375   Thumb Code    56  xcp.o(i.XcpCmdProgramMax)
    i.XcpCmdProgramPrepare                   0x080013b0   Section        0  xcp.o(i.XcpCmdProgramPrepare)
    XcpCmdProgramPrepare                     0x080013b1   Thumb Code     6  xcp.o(i.XcpCmdProgramPrepare)
    i.XcpCmdProgramReset                     0x080013b8   Section        0  xcp.o(i.XcpCmdProgramReset)
    XcpCmdProgramReset                       0x080013b9   Thumb Code    20  xcp.o(i.XcpCmdProgramReset)
    i.XcpCmdProgramStart                     0x080013d0   Section        0  xcp.o(i.XcpCmdProgramStart)
    XcpCmdProgramStart                       0x080013d1   Thumb Code    34  xcp.o(i.XcpCmdProgramStart)
    i.XcpCmdSetMta                           0x080013f8   Section        0  xcp.o(i.XcpCmdSetMta)
    XcpCmdSetMta                             0x080013f9   Thumb Code    18  xcp.o(i.XcpCmdSetMta)
    i.XcpCmdShortUpload                      0x08001410   Section        0  xcp.o(i.XcpCmdShortUpload)
    XcpCmdShortUpload                        0x08001411   Thumb Code    62  xcp.o(i.XcpCmdShortUpload)
    i.XcpCmdSynch                            0x08001454   Section        0  xcp.o(i.XcpCmdSynch)
    XcpCmdSynch                              0x08001455   Thumb Code     6  xcp.o(i.XcpCmdSynch)
    i.XcpCmdUpload                           0x0800145c   Section        0  xcp.o(i.XcpCmdUpload)
    XcpCmdUpload                             0x0800145d   Thumb Code    58  xcp.o(i.XcpCmdUpload)
    i.XcpComputeChecksum                     0x0800149c   Section        0  xcp.o(i.XcpComputeChecksum)
    XcpComputeChecksum                       0x0800149d   Thumb Code    40  xcp.o(i.XcpComputeChecksum)
    i.XcpInit                                0x080014c4   Section        0  xcp.o(i.XcpInit)
    i.XcpIsConnected                         0x080014e0   Section        0  xcp.o(i.XcpIsConnected)
    i.XcpPacketReceived                      0x080014f4   Section        0  xcp.o(i.XcpPacketReceived)
    i.XcpPacketTransmitted                   0x080015cc   Section        0  xcp.o(i.XcpPacketTransmitted)
    i.XcpProtectResources                    0x080015dc   Section        0  xcp.o(i.XcpProtectResources)
    XcpProtectResources                      0x080015dd   Thumb Code     8  xcp.o(i.XcpProtectResources)
    i.XcpSetCtoError                         0x080015e8   Section        0  xcp.o(i.XcpSetCtoError)
    XcpSetCtoError                           0x080015e9   Thumb Code    16  xcp.o(i.XcpSetCtoError)
    i.XcpTransmitPacket                      0x080015fc   Section        0  xcp.o(i.XcpTransmitPacket)
    XcpTransmitPacket                        0x080015fd   Thumb Code     6  xcp.o(i.XcpTransmitPacket)
    i.__NVIC_SetPriority                     0x08001602   Section        0  stm32f1xx_hal_cortex.o(i.__NVIC_SetPriority)
    __NVIC_SetPriority                       0x08001603   Thumb Code    32  stm32f1xx_hal_cortex.o(i.__NVIC_SetPriority)
    i.__scatterload_copy                     0x08001622   Section       14  handlers.o(i.__scatterload_copy)
    i.__scatterload_null                     0x08001630   Section        2  handlers.o(i.__scatterload_null)
    i.__scatterload_zeroinit                 0x08001632   Section       14  handlers.o(i.__scatterload_zeroinit)
    i.main                                   0x08001640   Section        0  main.o(i.main)
    .constdata                               0x0800164e   Section       16  system_stm32f1xx.o(.constdata)
    .constdata                               0x0800165e   Section        8  system_stm32f1xx.o(.constdata)
    .constdata                               0x08001666   Section        8  xcp.o(.constdata)
    xcpStationId                             0x08001666   Data           8  xcp.o(.constdata)
    .data                                    0x20000000   Section       12  stm32f1xx_hal.o(.data)
    .data                                    0x2000000c   Section        4  system_stm32f1xx.o(.data)
    .data                                    0x20000010   Section        8  led.o(.data)
    ledOn                                    0x20000010   Data           1  led.o(.data)
    ledBlinkIntervalMs                       0x20000012   Data           2  led.o(.data)
    nextBlinkEvent                           0x20000014   Data           4  led.o(.data)
    .data                                    0x20000018   Section       12  backdoor.o(.data)
    backdoorOpen                             0x20000018   Data           1  backdoor.o(.data)
    backdoorExtensionTime                    0x2000001c   Data           4  backdoor.o(.data)
    backdoorOpenTime                         0x20000020   Data           4  backdoor.o(.data)
    .data                                    0x20000024   Section        1  com.o(.data)
    comActiveInterface                       0x20000024   Data           1  com.o(.data)
    .data                                    0x20000028   Section        8  rs232.o(.data)
    xcpCtoRxLength                           0x20000028   Data           1  rs232.o(.data)
    xcpCtoRxInProgress                       0x20000029   Data           1  rs232.o(.data)
    xcpCtoRxStartTime                        0x2000002c   Data           4  rs232.o(.data)
    .data                                    0x20000030   Section        4  timer.o(.data)
    millisecond_counter                      0x20000030   Data           4  timer.o(.data)
    .bss                                     0x20000038   Section       32  stm32f1xx_hal_flash.o(.bss)
    .bss                                     0x20000058   Section       64  com.o(.bss)
    xcpCtoReqPacket                          0x20000058   Data          64  com.o(.bss)
    .bss                                     0x20000098   Section       76  xcp.o(.bss)
    xcpInfo                                  0x20000098   Data          76  xcp.o(.bss)
    .bss                                     0x200000e4   Section     1032  flash.o(.bss)
    blockInfo                                0x200000e4   Data         516  flash.o(.bss)
    bootBlockInfo                            0x200002e8   Data         516  flash.o(.bss)
    .bss                                     0x200004ec   Section       65  rs232.o(.bss)
    xcpCtoReqPacket                          0x200004ec   Data          65  rs232.o(.bss)
    STACK                                    0x20000530   Section     1024  startup_stm32f103xb.o(STACK)

    Global Symbols

    Symbol Name                              Value     Ov Type        Size  Object(Section)

    BuildAttributes$$THM_ISAv4$P$D$K$B$S$PE$A:L22UL41UL21$X:L11$S22US41US21$IEEE1$IW$USESV6$~STKCKD$USESV7$~SHL$OSPACE$EBA8$MICROLIB$REQ8$PRES8$EABIv2 0x00000000   Number         0  anon$$obj.o ABSOLUTE
    __ARM_use_no_argv                        0x00000000   Number         0  main.o ABSOLUTE
    __cpp_initialize__aeabi_                  - Undefined Weak Reference
    __cxa_finalize                            - Undefined Weak Reference
    __decompress                              - Undefined Weak Reference
    _clock_init                               - Undefined Weak Reference
    _microlib_exit                            - Undefined Weak Reference
    __Vectors_Size                           0x000000ec   Number         0  startup_stm32f103xb.o ABSOLUTE
    __Vectors                                0x08000000   Data           4  startup_stm32f103xb.o(RESET)
    __Vectors_End                            0x080000ec   Data           0  startup_stm32f103xb.o(RESET)
    __main                                   0x080000ed   Thumb Code     0  entry.o(.ARM.Collect$$$$00000000)
    _main_stk                                0x080000ed   Thumb Code     0  entry2.o(.ARM.Collect$$$$00000001)
    _main_scatterload                        0x080000f1   Thumb Code     0  entry5.o(.ARM.Collect$$$$00000004)
    __main_after_scatterload                 0x080000f5   Thumb Code     0  entry5.o(.ARM.Collect$$$$00000004)
    _main_clock                              0x080000f5   Thumb Code     0  entry7b.o(.ARM.Collect$$$$00000008)
    _main_cpp_init                           0x080000f5   Thumb Code     0  entry8b.o(.ARM.Collect$$$$0000000A)
    _main_init                               0x080000f5   Thumb Code     0  entry9a.o(.ARM.Collect$$$$0000000B)
    __rt_final_cpp                           0x080000fd   Thumb Code     0  entry10a.o(.ARM.Collect$$$$0000000D)
    __rt_final_exit                          0x080000fd   Thumb Code     0  entry11a.o(.ARM.Collect$$$$0000000F)
    Reset_Handler                            0x08000101   Thumb Code     8  startup_stm32f103xb.o(.text)
    NMI_Handler                              0x08000109   Thumb Code     2  startup_stm32f103xb.o(.text)
    HardFault_Handler                        0x0800010b   Thumb Code     2  startup_stm32f103xb.o(.text)
    MemManage_Handler                        0x0800010d   Thumb Code     2  startup_stm32f103xb.o(.text)
    BusFault_Handler                         0x0800010f   Thumb Code     2  startup_stm32f103xb.o(.text)
    UsageFault_Handler                       0x08000111   Thumb Code     2  startup_stm32f103xb.o(.text)
    SVC_Handler                              0x08000113   Thumb Code     2  startup_stm32f103xb.o(.text)
    DebugMon_Handler                         0x08000115   Thumb Code     2  startup_stm32f103xb.o(.text)
    PendSV_Handler                           0x08000117   Thumb Code     2  startup_stm32f103xb.o(.text)
    ADC1_2_IRQHandler                        0x08000119   Thumb Code     0  startup_stm32f103xb.o(.text)
    CAN1_RX1_IRQHandler                      0x08000119   Thumb Code     0  startup_stm32f103xb.o(.text)
    CAN1_SCE_IRQHandler                      0x08000119   Thumb Code     0  startup_stm32f103xb.o(.text)
    DMA1_Channel1_IRQHandler                 0x08000119   Thumb Code     0  startup_stm32f103xb.o(.text)
    DMA1_Channel2_IRQHandler                 0x08000119   Thumb Code     0  startup_stm32f103xb.o(.text)
    DMA1_Channel3_IRQHandler                 0x08000119   Thumb Code     0  startup_stm32f103xb.o(.text)
    DMA1_Channel4_IRQHandler                 0x08000119   Thumb Code     0  startup_stm32f103xb.o(.text)
    DMA1_Channel5_IRQHandler                 0x08000119   Thumb Code     0  startup_stm32f103xb.o(.text)
    DMA1_Channel6_IRQHandler                 0x08000119   Thumb Code     0  startup_stm32f103xb.o(.text)
    DMA1_Channel7_IRQHandler                 0x08000119   Thumb Code     0  startup_stm32f103xb.o(.text)
    EXTI0_IRQHandler                         0x08000119   Thumb Code     0  startup_stm32f103xb.o(.text)
    EXTI15_10_IRQHandler                     0x08000119   Thumb Code     0  startup_stm32f103xb.o(.text)
    EXTI1_IRQHandler                         0x08000119   Thumb Code     0  startup_stm32f103xb.o(.text)
    EXTI2_IRQHandler                         0x08000119   Thumb Code     0  startup_stm32f103xb.o(.text)
    EXTI3_IRQHandler                         0x08000119   Thumb Code     0  startup_stm32f103xb.o(.text)
    EXTI4_IRQHandler                         0x08000119   Thumb Code     0  startup_stm32f103xb.o(.text)
    EXTI9_5_IRQHandler                       0x08000119   Thumb Code     0  startup_stm32f103xb.o(.text)
    FLASH_IRQHandler                         0x08000119   Thumb Code     0  startup_stm32f103xb.o(.text)
    I2C1_ER_IRQHandler                       0x08000119   Thumb Code     0  startup_stm32f103xb.o(.text)
    I2C1_EV_IRQHandler                       0x08000119   Thumb Code     0  startup_stm32f103xb.o(.text)
    I2C2_ER_IRQHandler                       0x08000119   Thumb Code     0  startup_stm32f103xb.o(.text)
    I2C2_EV_IRQHandler                       0x08000119   Thumb Code     0  startup_stm32f103xb.o(.text)
    PVD_IRQHandler                           0x08000119   Thumb Code     0  startup_stm32f103xb.o(.text)
    RCC_IRQHandler                           0x08000119   Thumb Code     0  startup_stm32f103xb.o(.text)
    RTC_Alarm_IRQHandler                     0x08000119   Thumb Code     0  startup_stm32f103xb.o(.text)
    RTC_IRQHandler                           0x08000119   Thumb Code     0  startup_stm32f103xb.o(.text)
    SPI1_IRQHandler                          0x08000119   Thumb Code     0  startup_stm32f103xb.o(.text)
    SPI2_IRQHandler                          0x08000119   Thumb Code     0  startup_stm32f103xb.o(.text)
    TAMPER_IRQHandler                        0x08000119   Thumb Code     0  startup_stm32f103xb.o(.text)
    TIM1_BRK_IRQHandler                      0x08000119   Thumb Code     0  startup_stm32f103xb.o(.text)
    TIM1_CC_IRQHandler                       0x08000119   Thumb Code     0  startup_stm32f103xb.o(.text)
    TIM1_TRG_COM_IRQHandler                  0x08000119   Thumb Code     0  startup_stm32f103xb.o(.text)
    TIM1_UP_IRQHandler                       0x08000119   Thumb Code     0  startup_stm32f103xb.o(.text)
    TIM2_IRQHandler                          0x08000119   Thumb Code     0  startup_stm32f103xb.o(.text)
    TIM3_IRQHandler                          0x08000119   Thumb Code     0  startup_stm32f103xb.o(.text)
    TIM4_IRQHandler                          0x08000119   Thumb Code     0  startup_stm32f103xb.o(.text)
    USART1_IRQHandler                        0x08000119   Thumb Code     0  startup_stm32f103xb.o(.text)
    USART2_IRQHandler                        0x08000119   Thumb Code     0  startup_stm32f103xb.o(.text)
    USART3_IRQHandler                        0x08000119   Thumb Code     0  startup_stm32f103xb.o(.text)
    USBWakeUp_IRQHandler                     0x08000119   Thumb Code     0  startup_stm32f103xb.o(.text)
    USB_HP_CAN1_TX_IRQHandler                0x08000119   Thumb Code     0  startup_stm32f103xb.o(.text)
    USB_LP_CAN1_RX0_IRQHandler               0x08000119   Thumb Code     0  startup_stm32f103xb.o(.text)
    WWDG_IRQHandler                          0x08000119   Thumb Code     0  startup_stm32f103xb.o(.text)
    __aeabi_llsr                             0x08000125   Thumb Code    32  llushr.o(.text)
    _ll_ushift_r                             0x08000125   Thumb Code     0  llushr.o(.text)
    __scatterload                            0x08000145   Thumb Code    28  init.o(.text)
    __scatterload_rt2                        0x08000145   Thumb Code     0  init.o(.text)
    AssertFailure                            0x08000169   Thumb Code     6  asserts.o(i.AssertFailure)
    BackDoorCheck                            0x08000171   Thumb Code    50  backdoor.o(i.BackDoorCheck)
    BackDoorInit                             0x080001a9   Thumb Code    20  backdoor.o(i.BackDoorInit)
    BackDoorRestartTimer                     0x080001c1   Thumb Code    18  backdoor.o(i.BackDoorRestartTimer)
    BootInit                                 0x080001d9   Thumb Code    30  boot.o(i.BootInit)
    BootTask                                 0x080001f7   Thumb Code    22  boot.o(i.BootTask)
    ComFree                                  0x0800020d   Thumb Code     2  com.o(i.ComFree)
    ComGetActiveInterfaceMaxRxLen            0x08000211   Thumb Code    40  com.o(i.ComGetActiveInterfaceMaxRxLen)
    ComGetActiveInterfaceMaxTxLen            0x0800023d   Thumb Code    40  com.o(i.ComGetActiveInterfaceMaxTxLen)
    ComInit                                  0x08000269   Thumb Code    18  com.o(i.ComInit)
    ComIsConnected                           0x08000281   Thumb Code    16  com.o(i.ComIsConnected)
    ComTask                                  0x08000291   Thumb Code    32  com.o(i.ComTask)
    ComTransmitPacket                        0x080002b9   Thumb Code    24  com.o(i.ComTransmitPacket)
    CopInit                                  0x080002d5   Thumb Code     4  cop.o(i.CopInit)
    CopInitHook                              0x080002d9   Thumb Code     6  hooks.o(i.CopInitHook)
    CopService                               0x080002df   Thumb Code     4  cop.o(i.CopService)
    CopServiceHook                           0x080002e3   Thumb Code     4  hooks.o(i.CopServiceHook)
    CpuInit                                  0x080002e7   Thumb Code     4  cpu.o(i.CpuInit)
    CpuIrqDisable                            0x080002eb   Thumb Code     4  cpu_comp.o(i.CpuIrqDisable)
    CpuIrqEnable                             0x080002ef   Thumb Code     4  cpu_comp.o(i.CpuIrqEnable)
    CpuMemCopy                               0x080002f3   Thumb Code    30  cpu.o(i.CpuMemCopy)
    CpuStartUserProgram                      0x08000311   Thumb Code    62  cpu.o(i.CpuStartUserProgram)
    CpuUserProgramStartHook                  0x08000359   Thumb Code    40  hooks.o(i.CpuUserProgramStartHook)
    FLASH_PageErase                          0x080003a9   Thumb Code    28  stm32f1xx_hal_flash_ex.o(i.FLASH_PageErase)
    FLASH_WaitForLastOperation               0x08000445   Thumb Code    80  stm32f1xx_hal_flash.o(i.FLASH_WaitForLastOperation)
    FlashDone                                0x08000519   Thumb Code    46  flash.o(i.FlashDone)
    FlashErase                               0x08000551   Thumb Code   122  flash.o(i.FlashErase)
    FlashGetUserProgBaseAddress              0x080005d5   Thumb Code     4  flash.o(i.FlashGetUserProgBaseAddress)
    FlashInit                                0x080005dd   Thumb Code    16  flash.o(i.FlashInit)
    FlashVerifyChecksum                      0x08000659   Thumb Code    46  flash.o(i.FlashVerifyChecksum)
    FlashWrite                               0x0800068d   Thumb Code    68  flash.o(i.FlashWrite)
    FlashWriteChecksum                       0x08000731   Thumb Code    62  flash.o(i.FlashWriteChecksum)
    HAL_DeInit                               0x08000779   Thumb Code    26  stm32f1xx_hal.o(i.HAL_DeInit)
    HAL_FLASHEx_Erase                        0x08000799   Thumb Code   158  stm32f1xx_hal_flash_ex.o(i.HAL_FLASHEx_Erase)
    HAL_FLASH_Lock                           0x08000841   Thumb Code    14  stm32f1xx_hal_flash.o(i.HAL_FLASH_Lock)
    HAL_FLASH_Program                        0x08000855   Thumb Code   132  stm32f1xx_hal_flash.o(i.HAL_FLASH_Program)
    HAL_FLASH_Unlock                         0x080008e1   Thumb Code    28  stm32f1xx_hal_flash.o(i.HAL_FLASH_Unlock)
    HAL_GetTick                              0x08000909   Thumb Code     4  timer.o(i.HAL_GetTick)
    HAL_Init                                 0x0800090d   Thumb Code    32  stm32f1xx_hal.o(i.HAL_Init)
    HAL_InitTick                             0x08000931   Thumb Code    58  stm32f1xx_hal.o(i.HAL_InitTick)
    HAL_MspDeInit                            0x08000975   Thumb Code    58  main.o(i.HAL_MspDeInit)
    HAL_MspInit                              0x080009bd   Thumb Code   136  main.o(i.HAL_MspInit)
    HAL_NVIC_SetPriority                     0x08000a5d   Thumb Code    60  stm32f1xx_hal_cortex.o(i.HAL_NVIC_SetPriority)
    HAL_NVIC_SetPriorityGrouping             0x08000a9d   Thumb Code    26  stm32f1xx_hal_cortex.o(i.HAL_NVIC_SetPriorityGrouping)
    HAL_SYSTICK_Config                       0x08000ac1   Thumb Code    40  stm32f1xx_hal_cortex.o(i.HAL_SYSTICK_Config)
    LL_GPIO_DeInit                           0x08000b41   Thumb Code   110  stm32f1xx_ll_gpio.o(i.LL_GPIO_DeInit)
    LL_GPIO_Init                             0x08000bc5   Thumb Code   248  stm32f1xx_ll_gpio.o(i.LL_GPIO_Init)
    LL_RCC_DeInit                            0x08000cbd   Thumb Code    92  stm32f1xx_ll_rcc.o(i.LL_RCC_DeInit)
    LL_RCC_GetSystemClocksFreq               0x08000d1d   Thumb Code    32  stm32f1xx_ll_rcc.o(i.LL_RCC_GetSystemClocksFreq)
    LL_SetSystemCoreClock                    0x08000d3d   Thumb Code     6  stm32f1xx_ll_utils.o(i.LL_SetSystemCoreClock)
    LL_USART_Init                            0x08000d49   Thumb Code   218  stm32f1xx_ll_usart.o(i.LL_USART_Init)
    LedBlinkExit                             0x08000e31   Thumb Code     8  led.o(i.LedBlinkExit)
    LedBlinkInit                             0x08000e3d   Thumb Code     6  led.o(i.LedBlinkInit)
    LedBlinkTask                             0x08000e49   Thumb Code    48  led.o(i.LedBlinkTask)
    NvmDone                                  0x08000e81   Thumb Code    20  nvm.o(i.NvmDone)
    NvmErase                                 0x08000e95   Thumb Code     4  nvm.o(i.NvmErase)
    NvmGetUserProgBaseAddress                0x08000e99   Thumb Code     4  nvm.o(i.NvmGetUserProgBaseAddress)
    NvmInit                                  0x08000e9d   Thumb Code     4  nvm.o(i.NvmInit)
    NvmVerifyChecksum                        0x08000ea1   Thumb Code     4  nvm.o(i.NvmVerifyChecksum)
    NvmWrite                                 0x08000ea5   Thumb Code     4  nvm.o(i.NvmWrite)
    RCC_GetHCLKClockFreq                     0x08000ea9   Thumb Code    18  stm32f1xx_ll_rcc.o(i.RCC_GetHCLKClockFreq)
    RCC_GetPCLK1ClockFreq                    0x08000ec5   Thumb Code    20  stm32f1xx_ll_rcc.o(i.RCC_GetPCLK1ClockFreq)
    RCC_GetPCLK2ClockFreq                    0x08000ee1   Thumb Code    20  stm32f1xx_ll_rcc.o(i.RCC_GetPCLK2ClockFreq)
    RCC_GetSystemClockFreq                   0x08000efd   Thumb Code    28  stm32f1xx_ll_rcc.o(i.RCC_GetSystemClockFreq)
    RCC_PLL_GetFreqDomain_SYS                0x08000f21   Thumb Code    50  stm32f1xx_ll_rcc.o(i.RCC_PLL_GetFreqDomain_SYS)
    Rs232Init                                0x08000f5d   Thumb Code    70  rs232.o(i.Rs232Init)
    Rs232ReceivePacket                       0x08000fc5   Thumb Code   120  rs232.o(i.Rs232ReceivePacket)
    Rs232TransmitPacket                      0x08001071   Thumb Code    48  rs232.o(i.Rs232TransmitPacket)
    SysTick_Handler                          0x080010c5   Thumb Code     2  timer.o(i.SysTick_Handler)
    SystemInit                               0x08001179   Thumb Code    56  system_stm32f1xx.o(i.SystemInit)
    TimerGet                                 0x080011c1   Thumb Code    12  timer.o(i.TimerGet)
    TimerInit                                0x080011d1   Thumb Code    28  timer.o(i.TimerInit)
    TimerReset                               0x080011f5   Thumb Code    14  timer.o(i.TimerReset)
    TimerUpdate                              0x08001205   Thumb Code    20  timer.o(i.TimerUpdate)
    XcpInit                                  0x080014c5   Thumb Code    22  xcp.o(i.XcpInit)
    XcpIsConnected                           0x080014e1   Thumb Code    16  xcp.o(i.XcpIsConnected)
    XcpPacketReceived                        0x080014f5   Thumb Code   212  xcp.o(i.XcpPacketReceived)
    XcpPacketTransmitted                     0x080015cd   Thumb Code    10  xcp.o(i.XcpPacketTransmitted)
    __scatterload_copy                       0x08001623   Thumb Code    14  handlers.o(i.__scatterload_copy)
    __scatterload_null                       0x08001631   Thumb Code     2  handlers.o(i.__scatterload_null)
    __scatterload_zeroinit                   0x08001633   Thumb Code    14  handlers.o(i.__scatterload_zeroinit)
    main                                     0x08001641   Thumb Code    14  main.o(i.main)
    AHBPrescTable                            0x0800164e   Data          16  system_stm32f1xx.o(.constdata)
    APBPrescTable                            0x0800165e   Data           8  system_stm32f1xx.o(.constdata)
    Region$$Table$$Base                      0x08001670   Number         0  anon$$obj.o(Region$$Table)
    Region$$Table$$Limit                     0x08001690   Number         0  anon$$obj.o(Region$$Table)
    uwTickFreq                               0x20000000   Data           1  stm32f1xx_hal.o(.data)
    uwTickPrio                               0x20000004   Data           4  stm32f1xx_hal.o(.data)
    uwTick                                   0x20000008   Data           4  stm32f1xx_hal.o(.data)
    SystemCoreClock                          0x2000000c   Data           4  system_stm32f1xx.o(.data)
    pFlash                                   0x20000038   Data          32  stm32f1xx_hal_flash.o(.bss)
    __initial_sp                             0x20000930   Data           0  startup_stm32f103xb.o(STACK)



==============================================================================

Memory Map of the image

  Image Entry point : 0x080000ed

  Load Region LR_IROM1 (Base: 0x08000000, Size: 0x000016c4, Max: 0x00002000, ABSOLUTE)

    Execution Region ER_IROM1 (Exec base: 0x08000000, Load base: 0x08000000, Size: 0x00001690, Max: 0x00002000, ABSOLUTE)

    Exec Addr    Load Addr    Size         Type   Attr      Idx    E Section Name        Object

    0x08000000   0x08000000   0x000000ec   Data   RO         1993    RESET               startup_stm32f103xb.o
    0x080000ec   0x080000ec   0x00000000   Code   RO         2604  * .ARM.Collect$$$$00000000  mc_w.l(entry.o)
    0x080000ec   0x080000ec   0x00000004   Code   RO         2609    .ARM.Collect$$$$00000001  mc_w.l(entry2.o)
    0x080000f0   0x080000f0   0x00000004   Code   RO         2612    .ARM.Collect$$$$00000004  mc_w.l(entry5.o)
    0x080000f4   0x080000f4   0x00000000   Code   RO         2614    .ARM.Collect$$$$00000008  mc_w.l(entry7b.o)
    0x080000f4   0x080000f4   0x00000000   Code   RO         2616    .ARM.Collect$$$$0000000A  mc_w.l(entry8b.o)
    0x080000f4   0x080000f4   0x00000008   Code   RO         2617    .ARM.Collect$$$$0000000B  mc_w.l(entry9a.o)
    0x080000fc   0x080000fc   0x00000000   Code   RO         2619    .ARM.Collect$$$$0000000D  mc_w.l(entry10a.o)
    0x080000fc   0x080000fc   0x00000000   Code   RO         2621    .ARM.Collect$$$$0000000F  mc_w.l(entry11a.o)
    0x080000fc   0x080000fc   0x00000004   Code   RO         2610    .ARM.Collect$$$$00002712  mc_w.l(entry2.o)
    0x08000100   0x08000100   0x00000024   Code   RO         1994    .text               startup_stm32f103xb.o
    0x08000124   0x08000124   0x00000020   Code   RO         2607    .text               mc_w.l(llushr.o)
    0x08000144   0x08000144   0x00000024   Code   RO         2623    .text               mc_w.l(init.o)
    0x08000168   0x08000168   0x00000006   Code   RO         1998    i.AssertFailure     asserts.o
    0x0800016e   0x0800016e   0x00000002   PAD
    0x08000170   0x08000170   0x00000038   Code   RO         2010    i.BackDoorCheck     backdoor.o
    0x080001a8   0x080001a8   0x00000018   Code   RO         2012    i.BackDoorInit      backdoor.o
    0x080001c0   0x080001c0   0x00000018   Code   RO         2013    i.BackDoorRestartTimer  backdoor.o
    0x080001d8   0x080001d8   0x0000001e   Code   RO         2048    i.BootInit          boot.o
    0x080001f6   0x080001f6   0x00000016   Code   RO         2049    i.BootTask          boot.o
    0x0800020c   0x0800020c   0x00000002   Code   RO         2066    i.ComFree           com.o
    0x0800020e   0x0800020e   0x00000002   PAD
    0x08000210   0x08000210   0x0000002c   Code   RO         2067    i.ComGetActiveInterfaceMaxRxLen  com.o
    0x0800023c   0x0800023c   0x0000002c   Code   RO         2068    i.ComGetActiveInterfaceMaxTxLen  com.o
    0x08000268   0x08000268   0x00000018   Code   RO         2069    i.ComInit           com.o
    0x08000280   0x08000280   0x00000010   Code   RO         2070    i.ComIsConnected    com.o
    0x08000290   0x08000290   0x00000028   Code   RO         2071    i.ComTask           com.o
    0x080002b8   0x080002b8   0x0000001c   Code   RO         2072    i.ComTransmitPacket  com.o
    0x080002d4   0x080002d4   0x00000004   Code   RO         2120    i.CopInit           cop.o
    0x080002d8   0x080002d8   0x00000006   Code   RO         1795    i.CopInitHook       hooks.o
    0x080002de   0x080002de   0x00000004   Code   RO         2121    i.CopService        cop.o
    0x080002e2   0x080002e2   0x00000004   Code   RO         1796    i.CopServiceHook    hooks.o
    0x080002e6   0x080002e6   0x00000004   Code   RO         2293    i.CpuInit           cpu.o
    0x080002ea   0x080002ea   0x00000004   Code   RO         2586    i.CpuIrqDisable     cpu_comp.o
    0x080002ee   0x080002ee   0x00000004   Code   RO         2587    i.CpuIrqEnable      cpu_comp.o
    0x080002f2   0x080002f2   0x0000001e   Code   RO         2294    i.CpuMemCopy        cpu.o
    0x08000310   0x08000310   0x00000048   Code   RO         2296    i.CpuStartUserProgram  cpu.o
    0x08000358   0x08000358   0x0000002c   Code   RO         1797    i.CpuUserProgramStartHook  hooks.o
    0x08000384   0x08000384   0x00000024   Code   RO          877    i.FLASH_MassErase   stm32f1xx_hal_flash_ex.o
    0x080003a8   0x080003a8   0x00000024   Code   RO          886    i.FLASH_PageErase   stm32f1xx_hal_flash_ex.o
    0x080003cc   0x080003cc   0x0000001c   Code   RO          774    i.FLASH_Program_HalfWord  stm32f1xx_hal_flash.o
    0x080003e8   0x080003e8   0x0000005c   Code   RO          775    i.FLASH_SetErrorCode  stm32f1xx_hal_flash.o
    0x08000444   0x08000444   0x00000054   Code   RO          776    i.FLASH_WaitForLastOperation  stm32f1xx_hal_flash.o
    0x08000498   0x08000498   0x00000080   Code   RO         2335    i.FlashAddToBlock   flash.o
    0x08000518   0x08000518   0x00000038   Code   RO         2336    i.FlashDone         flash.o
    0x08000550   0x08000550   0x00000084   Code   RO         2337    i.FlashErase        flash.o
    0x080005d4   0x080005d4   0x00000008   Code   RO         2338    i.FlashGetUserProgBaseAddress  flash.o
    0x080005dc   0x080005dc   0x00000014   Code   RO         2339    i.FlashInit         flash.o
    0x080005f0   0x080005f0   0x00000022   Code   RO         2340    i.FlashInitBlock    flash.o
    0x08000612   0x08000612   0x00000002   PAD
    0x08000614   0x08000614   0x00000044   Code   RO         2342    i.FlashSwitchBlock  flash.o
    0x08000658   0x08000658   0x00000034   Code   RO         2343    i.FlashVerifyChecksum  flash.o
    0x0800068c   0x0800068c   0x00000054   Code   RO         2344    i.FlashWrite        flash.o
    0x080006e0   0x080006e0   0x00000050   Code   RO         2345    i.FlashWriteBlock   flash.o
    0x08000730   0x08000730   0x00000048   Code   RO         2346    i.FlashWriteChecksum  flash.o
    0x08000778   0x08000778   0x00000020   Code   RO           10    i.HAL_DeInit        stm32f1xx_hal.o
    0x08000798   0x08000798   0x000000a8   Code   RO          887    i.HAL_FLASHEx_Erase  stm32f1xx_hal_flash_ex.o
    0x08000840   0x08000840   0x00000014   Code   RO          780    i.HAL_FLASH_Lock    stm32f1xx_hal_flash.o
    0x08000854   0x08000854   0x0000008c   Code   RO          785    i.HAL_FLASH_Program  stm32f1xx_hal_flash.o
    0x080008e0   0x080008e0   0x00000028   Code   RO          787    i.HAL_FLASH_Unlock  stm32f1xx_hal_flash.o
    0x08000908   0x08000908   0x00000004   Code   RO         2527    i.HAL_GetTick       timer.o
    0x0800090c   0x0800090c   0x00000024   Code   RO           22    i.HAL_Init          stm32f1xx_hal.o
    0x08000930   0x08000930   0x00000044   Code   RO           23    i.HAL_InitTick      stm32f1xx_hal.o
    0x08000974   0x08000974   0x00000048   Code   RO         1917    i.HAL_MspDeInit     main.o
    0x080009bc   0x080009bc   0x000000a0   Code   RO         1918    i.HAL_MspInit       main.o
    0x08000a5c   0x08000a5c   0x00000040   Code   RO          498    i.HAL_NVIC_SetPriority  stm32f1xx_hal_cortex.o
    0x08000a9c   0x08000a9c   0x00000024   Code   RO          499    i.HAL_NVIC_SetPriorityGrouping  stm32f1xx_hal_cortex.o
    0x08000ac0   0x08000ac0   0x00000028   Code   RO          503    i.HAL_SYSTICK_Config  stm32f1xx_hal_cortex.o
    0x08000ae8   0x08000ae8   0x0000000e   Code   RO         1919    i.Init              main.o
    0x08000af6   0x08000af6   0x00000002   PAD
    0x08000af8   0x08000af8   0x00000010   Code   RO         1920    i.LL_APB2_GRP1_DisableClock  main.o
    0x08000b08   0x08000b08   0x00000018   Code   RO         1921    i.LL_APB2_GRP1_EnableClock  main.o
    0x08000b20   0x08000b20   0x00000010   Code   RO         1491    i.LL_APB2_GRP1_ForceReset  stm32f1xx_ll_gpio.o
    0x08000b30   0x08000b30   0x00000010   Code   RO         1492    i.LL_APB2_GRP1_ReleaseReset  stm32f1xx_ll_gpio.o
    0x08000b40   0x08000b40   0x00000084   Code   RO         1493    i.LL_GPIO_DeInit    stm32f1xx_ll_gpio.o
    0x08000bc4   0x08000bc4   0x000000f8   Code   RO         1494    i.LL_GPIO_Init      stm32f1xx_ll_gpio.o
    0x08000cbc   0x08000cbc   0x00000060   Code   RO         1543    i.LL_RCC_DeInit     stm32f1xx_ll_rcc.o
    0x08000d1c   0x08000d1c   0x00000020   Code   RO         1545    i.LL_RCC_GetSystemClocksFreq  stm32f1xx_ll_rcc.o
    0x08000d3c   0x08000d3c   0x0000000c   Code   RO         1679    i.LL_SetSystemCoreClock  stm32f1xx_ll_utils.o
    0x08000d48   0x08000d48   0x000000e8   Code   RO         1621    i.LL_USART_Init     stm32f1xx_ll_usart.o
    0x08000e30   0x08000e30   0x0000000c   Code   RO         1876    i.LedBlinkExit      led.o
    0x08000e3c   0x08000e3c   0x0000000c   Code   RO         1877    i.LedBlinkInit      led.o
    0x08000e48   0x08000e48   0x00000038   Code   RO         1878    i.LedBlinkTask      led.o
    0x08000e80   0x08000e80   0x00000014   Code   RO         2422    i.NvmDone           nvm.o
    0x08000e94   0x08000e94   0x00000004   Code   RO         2423    i.NvmErase          nvm.o
    0x08000e98   0x08000e98   0x00000004   Code   RO         2424    i.NvmGetUserProgBaseAddress  nvm.o
    0x08000e9c   0x08000e9c   0x00000004   Code   RO         2425    i.NvmInit           nvm.o
    0x08000ea0   0x08000ea0   0x00000004   Code   RO         2427    i.NvmVerifyChecksum  nvm.o
    0x08000ea4   0x08000ea4   0x00000004   Code   RO         2428    i.NvmWrite          nvm.o
    0x08000ea8   0x08000ea8   0x0000001c   Code   RO         1547    i.RCC_GetHCLKClockFreq  stm32f1xx_ll_rcc.o
    0x08000ec4   0x08000ec4   0x0000001c   Code   RO         1548    i.RCC_GetPCLK1ClockFreq  stm32f1xx_ll_rcc.o
    0x08000ee0   0x08000ee0   0x0000001c   Code   RO         1549    i.RCC_GetPCLK2ClockFreq  stm32f1xx_ll_rcc.o
    0x08000efc   0x08000efc   0x00000024   Code   RO         1550    i.RCC_GetSystemClockFreq  stm32f1xx_ll_rcc.o
    0x08000f20   0x08000f20   0x0000003c   Code   RO         1551    i.RCC_PLL_GetFreqDomain_SYS  stm32f1xx_ll_rcc.o
    0x08000f5c   0x08000f5c   0x0000004c   Code   RO         2476    i.Rs232Init         rs232.o
    0x08000fa8   0x08000fa8   0x0000001c   Code   RO         2477    i.Rs232ReceiveByte  rs232.o
    0x08000fc4   0x08000fc4   0x00000080   Code   RO         2478    i.Rs232ReceivePacket  rs232.o
    0x08001044   0x08001044   0x0000002c   Code   RO         2479    i.Rs232TransmitByte  rs232.o
    0x08001070   0x08001070   0x00000054   Code   RO         2480    i.Rs232TransmitPacket  rs232.o
    0x080010c4   0x080010c4   0x00000002   Code   RO         2528    i.SysTick_Handler   timer.o
    0x080010c6   0x080010c6   0x00000002   PAD
    0x080010c8   0x080010c8   0x000000b0   Code   RO         1922    i.SystemClock_Config  main.o
    0x08001178   0x08001178   0x00000048   Code   RO         1758    i.SystemInit        system_stm32f1xx.o
    0x080011c0   0x080011c0   0x00000010   Code   RO         2529    i.TimerGet          timer.o
    0x080011d0   0x080011d0   0x00000024   Code   RO         2530    i.TimerInit         timer.o
    0x080011f4   0x080011f4   0x0000000e   Code   RO         2531    i.TimerReset        timer.o
    0x08001202   0x08001202   0x00000002   PAD
    0x08001204   0x08001204   0x00000018   Code   RO         2532    i.TimerUpdate       timer.o
    0x0800121c   0x0800121c   0x00000028   Code   RO         2156    i.XcpCmdBuildCheckSum  xcp.o
    0x08001244   0x08001244   0x00000044   Code   RO         2157    i.XcpCmdConnect     xcp.o
    0x08001288   0x08001288   0x0000001c   Code   RO         2158    i.XcpCmdDisconnect  xcp.o
    0x080012a4   0x080012a4   0x00000028   Code   RO         2159    i.XcpCmdGetId       xcp.o
    0x080012cc   0x080012cc   0x00000020   Code   RO         2160    i.XcpCmdGetStatus   xcp.o
    0x080012ec   0x080012ec   0x00000060   Code   RO         2161    i.XcpCmdProgram     xcp.o
    0x0800134c   0x0800134c   0x00000028   Code   RO         2162    i.XcpCmdProgramClear  xcp.o
    0x08001374   0x08001374   0x0000003c   Code   RO         2163    i.XcpCmdProgramMax  xcp.o
    0x080013b0   0x080013b0   0x00000006   Code   RO         2164    i.XcpCmdProgramPrepare  xcp.o
    0x080013b6   0x080013b6   0x00000002   PAD
    0x080013b8   0x080013b8   0x00000018   Code   RO         2165    i.XcpCmdProgramReset  xcp.o
    0x080013d0   0x080013d0   0x00000028   Code   RO         2166    i.XcpCmdProgramStart  xcp.o
    0x080013f8   0x080013f8   0x00000018   Code   RO         2167    i.XcpCmdSetMta      xcp.o
    0x08001410   0x08001410   0x00000044   Code   RO         2168    i.XcpCmdShortUpload  xcp.o
    0x08001454   0x08001454   0x00000006   Code   RO         2169    i.XcpCmdSynch       xcp.o
    0x0800145a   0x0800145a   0x00000002   PAD
    0x0800145c   0x0800145c   0x00000040   Code   RO         2170    i.XcpCmdUpload      xcp.o
    0x0800149c   0x0800149c   0x00000028   Code   RO         2171    i.XcpComputeChecksum  xcp.o
    0x080014c4   0x080014c4   0x0000001c   Code   RO         2172    i.XcpInit           xcp.o
    0x080014e0   0x080014e0   0x00000014   Code   RO         2173    i.XcpIsConnected    xcp.o
    0x080014f4   0x080014f4   0x000000d8   Code   RO         2174    i.XcpPacketReceived  xcp.o
    0x080015cc   0x080015cc   0x00000010   Code   RO         2175    i.XcpPacketTransmitted  xcp.o
    0x080015dc   0x080015dc   0x0000000c   Code   RO         2176    i.XcpProtectResources  xcp.o
    0x080015e8   0x080015e8   0x00000014   Code   RO         2177    i.XcpSetCtoError    xcp.o
    0x080015fc   0x080015fc   0x00000006   Code   RO         2178    i.XcpTransmitPacket  xcp.o
    0x08001602   0x08001602   0x00000020   Code   RO          505    i.__NVIC_SetPriority  stm32f1xx_hal_cortex.o
    0x08001622   0x08001622   0x0000000e   Code   RO         2627    i.__scatterload_copy  mc_w.l(handlers.o)
    0x08001630   0x08001630   0x00000002   Code   RO         2628    i.__scatterload_null  mc_w.l(handlers.o)
    0x08001632   0x08001632   0x0000000e   Code   RO         2629    i.__scatterload_zeroinit  mc_w.l(handlers.o)
    0x08001640   0x08001640   0x0000000e   Code   RO         1923    i.main              main.o
    0x0800164e   0x0800164e   0x00000010   Data   RO         1759    .constdata          system_stm32f1xx.o
    0x0800165e   0x0800165e   0x00000008   Data   RO         1760    .constdata          system_stm32f1xx.o
    0x08001666   0x08001666   0x00000008   Data   RO         2180    .constdata          xcp.o
    0x0800166e   0x0800166e   0x00000002   PAD
    0x08001670   0x08001670   0x00000020   Data   RO         2625    Region$$Table       anon$$obj.o


    Execution Region RW_IRAM1 (Exec base: 0x20000000, Load base: 0x08001690, Size: 0x00000930, Max: 0x0000c000, ABSOLUTE)

    Exec Addr    Load Addr    Size         Type   Attr      Idx    E Section Name        Object

    0x20000000   0x08001690   0x0000000c   Data   RW           29    .data               stm32f1xx_hal.o
    0x2000000c   0x0800169c   0x00000004   Data   RW         1761    .data               system_stm32f1xx.o
    0x20000010   0x080016a0   0x00000008   Data   RW         1879    .data               led.o
    0x20000018   0x080016a8   0x0000000c   Data   RW         2015    .data               backdoor.o
    0x20000024   0x080016b4   0x00000001   Data   RW         2074    .data               com.o
    0x20000025   0x080016b5   0x00000003   PAD
    0x20000028   0x080016b8   0x00000008   Data   RW         2482    .data               rs232.o
    0x20000030   0x080016c0   0x00000004   Data   RW         2533    .data               timer.o
    0x20000034   0x080016c4   0x00000004   PAD
    0x20000038        -       0x00000020   Zero   RW          788    .bss                stm32f1xx_hal_flash.o
    0x20000058        -       0x00000040   Zero   RW         2073    .bss                com.o
    0x20000098        -       0x0000004c   Zero   RW         2179    .bss                xcp.o
    0x200000e4        -       0x00000408   Zero   RW         2347    .bss                flash.o
    0x200004ec        -       0x00000041   Zero   RW         2481    .bss                rs232.o
    0x2000052d   0x080016c4   0x00000003   PAD
    0x20000530        -       0x00000400   Zero   RW         1991    STACK               startup_stm32f103xb.o


==============================================================================

Image component sizes


      Code (inc. data)   RO Data    RW Data    ZI Data      Debug   Object Name

         6          0          0          0          0        664   asserts.o
       104         16          0         12          0       1602   backdoor.o
        52          0          0          0          0        870   boot.o
       198         26          0          1         64       3847   com.o
         8          0          0          0          0        747   cop.o
       106         10          0          0          0       2085   cpu.o
         8          0          0          0          0        863   cpu_comp.o
       734         68          0          0       1032       8687   flash.o
        54          4          0          0          0       9853   hooks.o
        80         18          0          8          0       9533   led.o
       476         74          0          0          0      24089   main.o
        40          0          0          0          0       3138   nvm.o
       360         58          0          8         65      15699   rs232.o
        36         10        236          0       1024        712   startup_stm32f103xb.o
       136         20          0         12          0     354346   stm32f1xx_hal.o
       172         14          0          0          0      28210   stm32f1xx_hal_cortex.o
       404         46          0          0         32       4106   stm32f1xx_hal_flash.o
       240         28          0          0          0       2463   stm32f1xx_hal_flash_ex.o
         0          0          0          0          0     338272   stm32f1xx_ll_dma.o
       412         34          0          0          0      14484   stm32f1xx_ll_gpio.o
       308         48          0          0          0      13949   stm32f1xx_ll_rcc.o
       232         14          0          0          0      23796   stm32f1xx_ll_usart.o
        12          6          0          0          0       2900   stm32f1xx_ll_utils.o
        72         16         24          4          0       1083   system_stm32f1xx.o
        96         16          0          4          0       2802   timer.o
       994        108          8          0         76      11126   xcp.o

    ----------------------------------------------------------------------
      5356        634        302         52       2300     879926   Object Totals
         0          0         32          0          0          0   (incl. Generated)
        16          0          2          3          7          0   (incl. Padding)

    ----------------------------------------------------------------------

      Code (inc. data)   RO Data    RW Data    ZI Data      Debug   Library Member Name

         0          0          0          0          0          0   entry.o
         0          0          0          0          0          0   entry10a.o
         0          0          0          0          0          0   entry11a.o
         8          4          0          0          0          0   entry2.o
         4          0          0          0          0          0   entry5.o
         0          0          0          0          0          0   entry7b.o
         0          0          0          0          0          0   entry8b.o
         8          4          0          0          0          0   entry9a.o
        30          0          0          0          0          0   handlers.o
        36          8          0          0          0         68   init.o
        32          0          0          0          0         68   llushr.o

    ----------------------------------------------------------------------
       118         16          0          0          0        136   Library Totals
         0          0          0          0          0          0   (incl. Padding)

    ----------------------------------------------------------------------

      Code (inc. data)   RO Data    RW Data    ZI Data      Debug   Library Name

       118         16          0          0          0        136   mc_w.l

    ----------------------------------------------------------------------
       118         16          0          0          0        136   Library Totals

    ----------------------------------------------------------------------

==============================================================================


      Code (inc. data)   RO Data    RW Data    ZI Data      Debug   

      5474        650        302         52       2300     874546   Grand Totals
      5474        650        302         52       2300     874546   ELF Image Totals
      5474        650        302         52          0          0   ROM Totals

==============================================================================

    Total RO  Size (Code + RO Data)                 5776 (   5.64kB)
    Total RW  Size (RW Data + ZI Data)              2352 (   2.30kB)
    Total ROM Size (Code + RO Data + RW Data)       5828 (   5.69kB)

==============================================================================

