Component: ARM Compiler 5.06 update 6 (build 750) Tool: armlink [4d35ed]

==============================================================================

Section Cross References

    stm32f1xx_hal.o(i.HAL_DeInit) refers to main.o(i.HAL_MspDeInit) for HAL_MspDeInit
    stm32f1xx_hal.o(i.HAL_Delay) refers to stm32f1xx_hal.o(i.HAL_GetTick) for HAL_GetTick
    stm32f1xx_hal.o(i.HAL_Delay) refers to stm32f1xx_hal.o(.data) for .data
    stm32f1xx_hal.o(i.HAL_GetTick) refers to stm32f1xx_hal.o(.data) for .data
    stm32f1xx_hal.o(i.HAL_GetTickFreq) refers to stm32f1xx_hal.o(.data) for .data
    stm32f1xx_hal.o(i.HAL_GetTickPrio) refers to stm32f1xx_hal.o(.data) for .data
    stm32f1xx_hal.o(i.HAL_IncTick) refers to stm32f1xx_hal.o(.data) for .data
    stm32f1xx_hal.o(i.HAL_Init) refers to stm32f1xx_hal_cortex.o(i.HAL_NVIC_SetPriorityGrouping) for HAL_NVIC_SetPriorityGrouping
    stm32f1xx_hal.o(i.HAL_Init) refers to stm32f1xx_hal.o(i.HAL_InitTick) for HAL_InitTick
    stm32f1xx_hal.o(i.HAL_Init) refers to main.o(i.HAL_MspInit) for HAL_MspInit
    stm32f1xx_hal.o(i.HAL_InitTick) refers to stm32f1xx_hal_cortex.o(i.HAL_SYSTICK_Config) for HAL_SYSTICK_Config
    stm32f1xx_hal.o(i.HAL_InitTick) refers to stm32f1xx_hal_cortex.o(i.HAL_NVIC_SetPriority) for HAL_NVIC_SetPriority
    stm32f1xx_hal.o(i.HAL_InitTick) refers to stm32f1xx_hal.o(.data) for .data
    stm32f1xx_hal.o(i.HAL_InitTick) refers to system_stm32f1xx.o(.data) for SystemCoreClock
    stm32f1xx_hal.o(i.HAL_SetTickFreq) refers to stm32f1xx_hal.o(i.HAL_InitTick) for HAL_InitTick
    stm32f1xx_hal.o(i.HAL_SetTickFreq) refers to stm32f1xx_hal.o(.data) for .data
    stm32f1xx_hal_can.o(i.HAL_CAN_DeInit) refers to stm32f1xx_hal_can.o(i.HAL_CAN_Stop) for HAL_CAN_Stop
    stm32f1xx_hal_can.o(i.HAL_CAN_DeInit) refers to stm32f1xx_hal_can.o(i.HAL_CAN_MspDeInit) for HAL_CAN_MspDeInit
==============================================================================

Removing Unused input sections from the image.

    Removing stm32f1xx_hal.o(.rev16_text), (4 bytes).
    Removing stm32f1xx_hal.o(.revsh_text), (4 bytes).
    Removing stm32f1xx_hal.o(.rrx_text), (6 bytes).
    Removing stm32f1xx_hal.o(i.HAL_DBGMCU_DisableDBGSleepMode), (16 bytes).
    Removing stm32f1xx_hal.o(i.HAL_DBGMCU_DisableDBGStandbyMode), (16 bytes).
    Removing stm32f1xx_hal.o(i.HAL_DBGMCU_DisableDBGStopMode), (16 bytes).
    Removing stm32f1xx_hal.o(i.HAL_DBGMCU_EnableDBGSleepMode), (16 bytes).
    Removing stm32f1xx_hal.o(i.HAL_DBGMCU_EnableDBGStandbyMode), (16 bytes).
    Removing stm32f1xx_hal.o(i.HAL_DBGMCU_EnableDBGStopMode), (16 bytes).
    Removing stm32f1xx_hal.o(i.HAL_DeInit), (32 bytes).
    Removing stm32f1xx_hal.o(i.HAL_Delay), (36 bytes).
    Removing stm32f1xx_hal.o(i.HAL_GetDEVID), (16 bytes).
    Removing stm32f1xx_hal.o(i.HAL_GetHalVersion), (8 bytes).
    Removing stm32f1xx_hal.o(i.HAL_GetREVID), (12 bytes).
    Removing stm32f1xx_hal.o(i.HAL_GetTickFreq), (12 bytes).
    Removing stm32f1xx_hal.o(i.HAL_GetTickPrio), (12 bytes).
    Removing stm32f1xx_hal.o(i.HAL_GetUIDw0), (12 bytes).
    Removing stm32f1xx_hal.o(i.HAL_GetUIDw1), (12 bytes).
==============================================================================

Image Symbol Table

    Local Symbols

    Symbol Name                              Value     Ov Type        Size  Object(Section)

    ../clib/microlib/init/entry.s            0x00000000   Number         0  entry2.o ABSOLUTE
    ../clib/microlib/init/entry.s            0x00000000   Number         0  entry8a.o ABSOLUTE
    ../clib/microlib/init/entry.s            0x00000000   Number         0  entry8b.o ABSOLUTE
    ../clib/microlib/init/entry.s            0x00000000   Number         0  entry7b.o ABSOLUTE
    ../clib/microlib/init/entry.s            0x00000000   Number         0  entry7a.o ABSOLUTE
    ../clib/microlib/init/entry.s            0x00000000   Number         0  entry5.o ABSOLUTE
    ../clib/microlib/init/entry.s            0x00000000   Number         0  entry.o ABSOLUTE
    ../clib/microlib/init/entry.s            0x00000000   Number         0  entry10a.o ABSOLUTE
    ../clib/microlib/init/entry.s            0x00000000   Number         0  entry10b.o ABSOLUTE
    ../clib/microlib/init/entry.s            0x00000000   Number         0  entry11a.o ABSOLUTE
    ../clib/microlib/init/entry.s            0x00000000   Number         0  entry11b.o ABSOLUTE
    ../clib/microlib/init/entry.s            0x00000000   Number         0  entry9b.o ABSOLUTE
    ../clib/microlib/init/entry.s            0x00000000   Number         0  entry9a.o ABSOLUTE
    ../clib/microlib/longlong.c              0x00000000   Number         0  llushr.o ABSOLUTE
    ..\\boot.c                               0x00000000   Number         0  boot.o ABSOLUTE
    ..\\led.c                                0x00000000   Number         0  led.o ABSOLUTE
    ..\\lib\\STM32F1xx_HAL_Driver\\Src\\stm32f1xx_hal.c 0x00000000   Number         0  stm32f1xx_hal.o ABSOLUTE
    ..\\lib\\STM32F1xx_HAL_Driver\\Src\\stm32f1xx_hal_can.c 0x00000000   Number         0  stm32f1xx_hal_can.o ABSOLUTE
    ..\\lib\\STM32F1xx_HAL_Driver\\Src\\stm32f1xx_hal_cortex.c 0x00000000   Number         0  stm32f1xx_hal_cortex.o ABSOLUTE
    ..\\lib\\STM32F1xx_HAL_Driver\\Src\\stm32f1xx_hal_dma.c 0x00000000   Number         0  stm32f1xx_hal_dma.o ABSOLUTE
    ..\\lib\\STM32F1xx_HAL_Driver\\Src\\stm32f1xx_hal_exti.c 0x00000000   Number         0  stm32f1xx_hal_exti.o ABSOLUTE
    ..\\lib\\STM32F1xx_HAL_Driver\\Src\\stm32f1xx_hal_flash.c 0x00000000   Number         0  stm32f1xx_hal_flash.o ABSOLUTE
    ..\\lib\\STM32F1xx_HAL_Driver\\Src\\stm32f1xx_hal_flash_ex.c 0x00000000   Number         0  stm32f1xx_hal_flash_ex.o ABSOLUTE
    ..\\lib\\STM32F1xx_HAL_Driver\\Src\\stm32f1xx_hal_gpio.c 0x00000000   Number         0  stm32f1xx_hal_gpio.o ABSOLUTE
    ..\\lib\\STM32F1xx_HAL_Driver\\Src\\stm32f1xx_hal_gpio_ex.c 0x00000000   Number         0  stm32f1xx_hal_gpio_ex.o ABSOLUTE
    ..\\lib\\STM32F1xx_HAL_Driver\\Src\\stm32f1xx_hal_pwr.c 0x00000000   Number         0  stm32f1xx_hal_pwr.o ABSOLUTE
    ..\\lib\\STM32F1xx_HAL_Driver\\Src\\stm32f1xx_hal_rcc.c 0x00000000   Number         0  stm32f1xx_hal_rcc.o ABSOLUTE
    ..\\lib\\STM32F1xx_HAL_Driver\\Src\\stm32f1xx_hal_rcc_ex.c 0x00000000   Number         0  stm32f1xx_hal_rcc_ex.o ABSOLUTE
    ..\\lib\\STM32F1xx_HAL_Driver\\Src\\stm32f1xx_hal_tim.c 0x00000000   Number         0  stm32f1xx_hal_tim.o ABSOLUTE
    ..\\lib\\STM32F1xx_HAL_Driver\\Src\\stm32f1xx_hal_tim_ex.c 0x00000000   Number         0  stm32f1xx_hal_tim_ex.o ABSOLUTE
    ..\\lib\\STM32F1xx_HAL_Driver\\Src\\stm32f1xx_hal_uart.c 0x00000000   Number         0  stm32f1xx_hal_uart.o ABSOLUTE
    ..\\lib\\system_stm32f1xx.c              0x00000000   Number         0  system_stm32f1xx.o ABSOLUTE
    ..\\main.c                               0x00000000   Number         0  main.o ABSOLUTE
    ..\\timer.c                              0x00000000   Number         0  timer.o ABSOLUTE
    ..\boot.c                                0x00000000   Number         0  boot.o ABSOLUTE
    ..\led.c                                 0x00000000   Number         0  led.o ABSOLUTE
    ..\lib\STM32F1xx_HAL_Driver\Src\stm32f1xx_hal.c 0x00000000   Number         0  stm32f1xx_hal.o ABSOLUTE
    ..\lib\STM32F1xx_HAL_Driver\Src\stm32f1xx_hal_can.c 0x00000000   Number         0  stm32f1xx_hal_can.o ABSOLUTE
    ..\lib\STM32F1xx_HAL_Driver\Src\stm32f1xx_hal_cortex.c 0x00000000   Number         0  stm32f1xx_hal_cortex.o ABSOLUTE
    ..\lib\STM32F1xx_HAL_Driver\Src\stm32f1xx_hal_dma.c 0x00000000   Number         0  stm32f1xx_hal_dma.o ABSOLUTE
    ..\lib\STM32F1xx_HAL_Driver\Src\stm32f1xx_hal_exti.c 0x00000000   Number         0  stm32f1xx_hal_exti.o ABSOLUTE
    ..\lib\STM32F1xx_HAL_Driver\Src\stm32f1xx_hal_flash.c 0x00000000   Number         0  stm32f1xx_hal_flash.o ABSOLUTE
    ..\lib\STM32F1xx_HAL_Driver\Src\stm32f1xx_hal_flash_ex.c 0x00000000   Number         0  stm32f1xx_hal_flash_ex.o ABSOLUTE
    ..\lib\STM32F1xx_HAL_Driver\Src\stm32f1xx_hal_gpio.c 0x00000000   Number         0  stm32f1xx_hal_gpio.o ABSOLUTE
    ..\lib\STM32F1xx_HAL_Driver\Src\stm32f1xx_hal_gpio_ex.c 0x00000000   Number         0  stm32f1xx_hal_gpio_ex.o ABSOLUTE
    ..\lib\STM32F1xx_HAL_Driver\Src\stm32f1xx_hal_pwr.c 0x00000000   Number         0  stm32f1xx_hal_pwr.o ABSOLUTE
    ..\lib\STM32F1xx_HAL_Driver\Src\stm32f1xx_hal_rcc.c 0x00000000   Number         0  stm32f1xx_hal_rcc.o ABSOLUTE
    ..\lib\STM32F1xx_HAL_Driver\Src\stm32f1xx_hal_rcc_ex.c 0x00000000   Number         0  stm32f1xx_hal_rcc_ex.o ABSOLUTE
    ..\lib\STM32F1xx_HAL_Driver\Src\stm32f1xx_hal_tim.c 0x00000000   Number         0  stm32f1xx_hal_tim.o ABSOLUTE
    ..\lib\STM32F1xx_HAL_Driver\Src\stm32f1xx_hal_tim_ex.c 0x00000000   Number         0  stm32f1xx_hal_tim_ex.o ABSOLUTE
    ..\lib\STM32F1xx_HAL_Driver\Src\stm32f1xx_hal_uart.c 0x00000000   Number         0  stm32f1xx_hal_uart.o ABSOLUTE
    ..\lib\system_stm32f1xx.c                0x00000000   Number         0  system_stm32f1xx.o ABSOLUTE
    ..\main.c                                0x00000000   Number         0  main.o ABSOLUTE
    ..\startup_stm32f103xb.s                 0x00000000   Number         0  startup_stm32f103xb.o ABSOLUTE
    ..\timer.c                               0x00000000   Number         0  timer.o ABSOLUTE
    dc.s                                     0x00000000   Number         0  dc.o ABSOLUTE
    handlers.s                               0x00000000   Number         0  handlers.o ABSOLUTE
    init.s                                   0x00000000   Number         0  init.o ABSOLUTE
    RESET                                    0x08002000   Section      240  startup_stm32f103xb.o(RESET)
    .ARM.Collect$$$$00000000                 0x080020f0   Section        0  entry.o(.ARM.Collect$$$$00000000)
    .ARM.Collect$$$$00000001                 0x080020f0   Section        4  entry2.o(.ARM.Collect$$$$00000001)
    .ARM.Collect$$$$00000004                 0x080020f4   Section        4  entry5.o(.ARM.Collect$$$$00000004)
    .ARM.Collect$$$$00000008                 0x080020f8   Section        0  entry7b.o(.ARM.Collect$$$$00000008)
    .ARM.Collect$$$$0000000A                 0x080020f8   Section        0  entry8b.o(.ARM.Collect$$$$0000000A)
    .ARM.Collect$$$$0000000B                 0x080020f8   Section        8  entry9a.o(.ARM.Collect$$$$0000000B)
    .ARM.Collect$$$$0000000D                 0x08002100   Section        0  entry10a.o(.ARM.Collect$$$$0000000D)
    .ARM.Collect$$$$0000000F                 0x08002100   Section        0  entry11a.o(.ARM.Collect$$$$0000000F)
    .ARM.Collect$$$$00002712                 0x08002100   Section        4  entry2.o(.ARM.Collect$$$$00002712)
    __lit__00000000                          0x08002100   Data           4  entry2.o(.ARM.Collect$$$$00002712)
    .text                                    0x08002104   Section       44  startup_stm32f103xb.o(.text)
    .text                                    0x08002130   Section       36  init.o(.text)
    i.BootActivate                           0x08002154   Section        0  boot.o(i.BootActivate)
    i.BootComCheckActivationRequest          0x08002178   Section        0  boot.o(i.BootComCheckActivationRequest)
    i.BootComInit                            0x0800217c   Section        0  boot.o(i.BootComInit)
    i.BootComRs232CheckActivationRequest     0x08002180   Section        0  boot.o(i.BootComRs232CheckActivationRequest)
    BootComRs232CheckActivationRequest       0x08002181   Thumb Code   106  boot.o(i.BootComRs232CheckActivationRequest)
    i.BootComRs232Init                       0x080021f4   Section        0  boot.o(i.BootComRs232Init)
    BootComRs232Init                         0x080021f5   Thumb Code    32  boot.o(i.BootComRs232Init)
    i.HAL_GPIO_Init                          0x0800221c   Section        0  stm32f1xx_hal_gpio.o(i.HAL_GPIO_Init)
    i.HAL_GPIO_WritePin                      0x0800240c   Section        0  stm32f1xx_hal_gpio.o(i.HAL_GPIO_WritePin)
    i.HAL_GetTick                            0x0800241c   Section        0  stm32f1xx_hal.o(i.HAL_GetTick)
    i.HAL_IncTick                            0x08002428   Section        0  stm32f1xx_hal.o(i.HAL_IncTick)
    i.HAL_Init                               0x08002438   Section        0  stm32f1xx_hal.o(i.HAL_Init)
    i.HAL_InitTick                           0x0800245c   Section        0  stm32f1xx_hal.o(i.HAL_InitTick)
    i.HAL_MspInit                            0x080024a0   Section        0  main.o(i.HAL_MspInit)
    i.HAL_NVIC_SetPriority                   0x080025a0   Section        0  stm32f1xx_hal_cortex.o(i.HAL_NVIC_SetPriority)
    i.HAL_NVIC_SetPriorityGrouping           0x080025e0   Section        0  stm32f1xx_hal_cortex.o(i.HAL_NVIC_SetPriorityGrouping)
    i.HAL_RCC_ClockConfig                    0x08002604   Section        0  stm32f1xx_hal_rcc.o(i.HAL_RCC_ClockConfig)
    i.HAL_RCC_GetHCLKFreq                    0x08002758   Section        0  stm32f1xx_hal_rcc.o(i.HAL_RCC_GetHCLKFreq)
    i.HAL_RCC_GetPCLK1Freq                   0x08002764   Section        0  stm32f1xx_hal_rcc.o(i.HAL_RCC_GetPCLK1Freq)
    i.HAL_RCC_GetPCLK2Freq                   0x08002784   Section        0  stm32f1xx_hal_rcc.o(i.HAL_RCC_GetPCLK2Freq)
    i.HAL_RCC_GetSysClockFreq                0x080027a4   Section        0  stm32f1xx_hal_rcc.o(i.HAL_RCC_GetSysClockFreq)
    i.HAL_RCC_OscConfig                      0x08002818   Section        0  stm32f1xx_hal_rcc.o(i.HAL_RCC_OscConfig)
    i.HAL_SYSTICK_CLKSourceConfig            0x08002b9c   Section        0  stm32f1xx_hal_cortex.o(i.HAL_SYSTICK_CLKSourceConfig)
    i.HAL_SYSTICK_Callback                   0x08002bb8   Section        0  stm32f1xx_hal_cortex.o(i.HAL_SYSTICK_Callback)
    i.HAL_SYSTICK_Config                     0x08002bba   Section        0  stm32f1xx_hal_cortex.o(i.HAL_SYSTICK_Config)
    i.HAL_SYSTICK_IRQHandler                 0x08002be2   Section        0  stm32f1xx_hal_cortex.o(i.HAL_SYSTICK_IRQHandler)
    i.HAL_UART_Init                          0x08002bea   Section        0  stm32f1xx_hal_uart.o(i.HAL_UART_Init)
    i.HAL_UART_MspInit                       0x08002c4e   Section        0  stm32f1xx_hal_uart.o(i.HAL_UART_MspInit)
    i.HAL_UART_Receive                       0x08002c50   Section        0  stm32f1xx_hal_uart.o(i.HAL_UART_Receive)
    i.Init                                   0x08002d22   Section        0  main.o(i.Init)
    Init                                     0x08002d23   Thumb Code    26  main.o(i.Init)
    i.LedInit                                0x08002d3c   Section        0  led.o(i.LedInit)
    i.LedToggle                              0x08002d4c   Section        0  led.o(i.LedToggle)
    i.RCC_Delay                              0x08002d90   Section        0  stm32f1xx_hal_rcc.o(i.RCC_Delay)
    RCC_Delay                                0x08002d91   Thumb Code    30  stm32f1xx_hal_rcc.o(i.RCC_Delay)
    i.Rs232ReceiveByte                       0x08002db4   Section        0  boot.o(i.Rs232ReceiveByte)
    Rs232ReceiveByte                         0x08002db5   Thumb Code    24  boot.o(i.Rs232ReceiveByte)
    i.SysTick_Handler                        0x08002dd0   Section        0  timer.o(i.SysTick_Handler)
    i.SystemClock_Config                     0x08002dde   Section        0  main.o(i.SystemClock_Config)
    SystemClock_Config                       0x08002ddf   Thumb Code    74  main.o(i.SystemClock_Config)
    i.SystemInit                             0x08002e28   Section        0  system_stm32f1xx.o(i.SystemInit)
    i.TimerGet                               0x08002e70   Section        0  timer.o(i.TimerGet)
    i.TimerInit                              0x08002e74   Section        0  timer.o(i.TimerInit)
    i.UART_SetConfig                         0x08002e9c   Section        0  stm32f1xx_hal_uart.o(i.UART_SetConfig)
    UART_SetConfig                           0x08002e9d   Thumb Code   272  stm32f1xx_hal_uart.o(i.UART_SetConfig)
    i.UART_WaitOnFlagUntilTimeout            0x08002fb0   Section        0  stm32f1xx_hal_uart.o(i.UART_WaitOnFlagUntilTimeout)
    UART_WaitOnFlagUntilTimeout              0x08002fb1   Thumb Code   100  stm32f1xx_hal_uart.o(i.UART_WaitOnFlagUntilTimeout)
    i.VectorBase_Config                      0x08003014   Section        0  main.o(i.VectorBase_Config)
    VectorBase_Config                        0x08003015   Thumb Code     8  main.o(i.VectorBase_Config)
    i.__NVIC_SetPriority                     0x08003024   Section        0  stm32f1xx_hal_cortex.o(i.__NVIC_SetPriority)
    __NVIC_SetPriority                       0x08003025   Thumb Code    32  stm32f1xx_hal_cortex.o(i.__NVIC_SetPriority)
    i.__scatterload_copy                     0x08003044   Section       14  handlers.o(i.__scatterload_copy)
    i.__scatterload_null                     0x08003052   Section        2  handlers.o(i.__scatterload_null)
    i.__scatterload_zeroinit                 0x08003054   Section       14  handlers.o(i.__scatterload_zeroinit)
    i.main                                   0x08003062   Section        0  main.o(i.main)
    .constdata                               0x08003074   Section       16  system_stm32f1xx.o(.constdata)
    .constdata                               0x08003084   Section        8  system_stm32f1xx.o(.constdata)
    .data                                    0x20000000   Section       12  stm32f1xx_hal.o(.data)
    .data                                    0x2000000c   Section        4  system_stm32f1xx.o(.data)
    .data                                    0x20000010   Section        8  boot.o(.data)
    xcpCtoRxLength                           0x20000010   Data           1  boot.o(.data)
    xcpCtoRxInProgress                       0x20000011   Data           1  boot.o(.data)
    xcpCtoRxStartTime                        0x20000014   Data           4  boot.o(.data)
    .data                                    0x20000018   Section        8  led.o(.data)
    led_toggle_state                         0x20000018   Data           1  led.o(.data)
    timer_counter_last                       0x2000001c   Data           4  led.o(.data)
    .bss                                     0x20000020   Section      132  boot.o(.bss)
    xcpCtoReqPacket                          0x20000020   Data          65  boot.o(.bss)
    rs232Handle                              0x20000064   Data          64  boot.o(.bss)
    STACK                                    0x200000a8   Section     1024  startup_stm32f103xb.o(STACK)

    Global Symbols

    Symbol Name                              Value     Ov Type        Size  Object(Section)

    BuildAttributes$$THM_ISAv4$P$D$K$B$S$PE$A:L22UL41UL21$X:L11$S22US41US21$IEEE1$IW$USESV6$~STKCKD$USESV7$~SHL$OSPACE$EBA8$MICROLIB$REQ8$PRES8$EABIv2 0x00000000   Number         0  anon$$obj.o ABSOLUTE
    __ARM_use_no_argv                        0x00000000   Number         0  main.o ABSOLUTE
    __cpp_initialize__aeabi_                  - Undefined Weak Reference
    __cxa_finalize                            - Undefined Weak Reference
    __decompress                              - Undefined Weak Reference
    _clock_init                               - Undefined Weak Reference
    _microlib_exit                            - Undefined Weak Reference
    __Vectors_Size                           0x000000f0   Number         0  startup_stm32f103xb.o ABSOLUTE
    __Vectors                                0x08002000   Data           4  startup_stm32f103xb.o(RESET)
    __Vectors_End                            0x080020f0   Data           0  startup_stm32f103xb.o(RESET)
    __main                                   0x080020f1   Thumb Code     0  entry.o(.ARM.Collect$$$$00000000)
    _main_stk                                0x080020f1   Thumb Code     0  entry2.o(.ARM.Collect$$$$00000001)
    _main_scatterload                        0x080020f5   Thumb Code     0  entry5.o(.ARM.Collect$$$$00000004)
    __main_after_scatterload                 0x080020f9   Thumb Code     0  entry5.o(.ARM.Collect$$$$00000004)
    _main_clock                              0x080020f9   Thumb Code     0  entry7b.o(.ARM.Collect$$$$00000008)
    _main_cpp_init                           0x080020f9   Thumb Code     0  entry8b.o(.ARM.Collect$$$$0000000A)
    _main_init                               0x080020f9   Thumb Code     0  entry9a.o(.ARM.Collect$$$$0000000B)
    __rt_final_cpp                           0x08002101   Thumb Code     0  entry10a.o(.ARM.Collect$$$$0000000D)
    __rt_final_exit                          0x08002101   Thumb Code     0  entry11a.o(.ARM.Collect$$$$0000000F)
    Reset_Handler                            0x08002105   Thumb Code    12  startup_stm32f103xb.o(.text)
    NMI_Handler                              0x08002111   Thumb Code     2  startup_stm32f103xb.o(.text)
    HardFault_Handler                        0x08002113   Thumb Code     2  startup_stm32f103xb.o(.text)
    MemManage_Handler                        0x08002115   Thumb Code     2  startup_stm32f103xb.o(.text)
    BusFault_Handler                         0x08002117   Thumb Code     2  startup_stm32f103xb.o(.text)
    UsageFault_Handler                       0x08002119   Thumb Code     2  startup_stm32f103xb.o(.text)
    SVC_Handler                              0x0800211b   Thumb Code     2  startup_stm32f103xb.o(.text)
    DebugMon_Handler                         0x0800211d   Thumb Code     2  startup_stm32f103xb.o(.text)
    PendSV_Handler                           0x0800211f   Thumb Code     2  startup_stm32f103xb.o(.text)
    ADC1_2_IRQHandler                        0x08002123   Thumb Code     0  startup_stm32f103xb.o(.text)
    CAN1_RX1_IRQHandler                      0x08002123   Thumb Code     0  startup_stm32f103xb.o(.text)
    CAN1_SCE_IRQHandler                      0x08002123   Thumb Code     0  startup_stm32f103xb.o(.text)
    DMA1_Channel1_IRQHandler                 0x08002123   Thumb Code     0  startup_stm32f103xb.o(.text)
    DMA1_Channel2_IRQHandler                 0x08002123   Thumb Code     0  startup_stm32f103xb.o(.text)
    DMA1_Channel3_IRQHandler                 0x08002123   Thumb Code     0  startup_stm32f103xb.o(.text)
    DMA1_Channel4_IRQHandler                 0x08002123   Thumb Code     0  startup_stm32f103xb.o(.text)
    DMA1_Channel5_IRQHandler                 0x08002123   Thumb Code     0  startup_stm32f103xb.o(.text)
    DMA1_Channel6_IRQHandler                 0x08002123   Thumb Code     0  startup_stm32f103xb.o(.text)
    DMA1_Channel7_IRQHandler                 0x08002123   Thumb Code     0  startup_stm32f103xb.o(.text)
    EXTI0_IRQHandler                         0x08002123   Thumb Code     0  startup_stm32f103xb.o(.text)
    EXTI15_10_IRQHandler                     0x08002123   Thumb Code     0  startup_stm32f103xb.o(.text)
    EXTI1_IRQHandler                         0x08002123   Thumb Code     0  startup_stm32f103xb.o(.text)
    EXTI2_IRQHandler                         0x08002123   Thumb Code     0  startup_stm32f103xb.o(.text)
    EXTI3_IRQHandler                         0x08002123   Thumb Code     0  startup_stm32f103xb.o(.text)
    EXTI4_IRQHandler                         0x08002123   Thumb Code     0  startup_stm32f103xb.o(.text)
    EXTI9_5_IRQHandler                       0x08002123   Thumb Code     0  startup_stm32f103xb.o(.text)
    FLASH_IRQHandler                         0x08002123   Thumb Code     0  startup_stm32f103xb.o(.text)
    I2C1_ER_IRQHandler                       0x08002123   Thumb Code     0  startup_stm32f103xb.o(.text)
    I2C1_EV_IRQHandler                       0x08002123   Thumb Code     0  startup_stm32f103xb.o(.text)
    I2C2_ER_IRQHandler                       0x08002123   Thumb Code     0  startup_stm32f103xb.o(.text)
    I2C2_EV_IRQHandler                       0x08002123   Thumb Code     0  startup_stm32f103xb.o(.text)
    PVD_IRQHandler                           0x08002123   Thumb Code     0  startup_stm32f103xb.o(.text)
    RCC_IRQHandler                           0x08002123   Thumb Code     0  startup_stm32f103xb.o(.text)
    RTC_Alarm_IRQHandler                     0x08002123   Thumb Code     0  startup_stm32f103xb.o(.text)
    RTC_IRQHandler                           0x08002123   Thumb Code     0  startup_stm32f103xb.o(.text)
    SPI1_IRQHandler                          0x08002123   Thumb Code     0  startup_stm32f103xb.o(.text)
    SPI2_IRQHandler                          0x08002123   Thumb Code     0  startup_stm32f103xb.o(.text)
    TAMPER_IRQHandler                        0x08002123   Thumb Code     0  startup_stm32f103xb.o(.text)
    TIM1_BRK_IRQHandler                      0x08002123   Thumb Code     0  startup_stm32f103xb.o(.text)
    TIM1_CC_IRQHandler                       0x08002123   Thumb Code     0  startup_stm32f103xb.o(.text)
    TIM1_TRG_COM_IRQHandler                  0x08002123   Thumb Code     0  startup_stm32f103xb.o(.text)
    TIM1_UP_IRQHandler                       0x08002123   Thumb Code     0  startup_stm32f103xb.o(.text)
    TIM2_IRQHandler                          0x08002123   Thumb Code     0  startup_stm32f103xb.o(.text)
    TIM3_IRQHandler                          0x08002123   Thumb Code     0  startup_stm32f103xb.o(.text)
    TIM4_IRQHandler                          0x08002123   Thumb Code     0  startup_stm32f103xb.o(.text)
    USART1_IRQHandler                        0x08002123   Thumb Code     0  startup_stm32f103xb.o(.text)
    USART2_IRQHandler                        0x08002123   Thumb Code     0  startup_stm32f103xb.o(.text)
    USART3_IRQHandler                        0x08002123   Thumb Code     0  startup_stm32f103xb.o(.text)
    USBWakeUp_IRQHandler                     0x08002123   Thumb Code     0  startup_stm32f103xb.o(.text)
    USB_HP_CAN1_TX_IRQHandler                0x08002123   Thumb Code     0  startup_stm32f103xb.o(.text)
    USB_LP_CAN1_RX0_IRQHandler               0x08002123   Thumb Code     0  startup_stm32f103xb.o(.text)
    WWDG_IRQHandler                          0x08002123   Thumb Code     0  startup_stm32f103xb.o(.text)
    __scatterload                            0x08002131   Thumb Code    28  init.o(.text)
    __scatterload_rt2                        0x08002131   Thumb Code     0  init.o(.text)
    BootActivate                             0x08002155   Thumb Code    26  boot.o(i.BootActivate)
    BootComCheckActivationRequest            0x08002179   Thumb Code     4  boot.o(i.BootComCheckActivationRequest)
    BootComInit                              0x0800217d   Thumb Code     4  boot.o(i.BootComInit)
    HAL_GPIO_Init                            0x0800221d   Thumb Code   464  stm32f1xx_hal_gpio.o(i.HAL_GPIO_Init)
    HAL_GPIO_WritePin                        0x0800240d   Thumb Code    14  stm32f1xx_hal_gpio.o(i.HAL_GPIO_WritePin)
    HAL_GetTick                              0x0800241d   Thumb Code     6  stm32f1xx_hal.o(i.HAL_GetTick)
    HAL_IncTick                              0x08002429   Thumb Code    12  stm32f1xx_hal.o(i.HAL_IncTick)
    HAL_Init                                 0x08002439   Thumb Code    32  stm32f1xx_hal.o(i.HAL_Init)
    HAL_InitTick                             0x0800245d   Thumb Code    58  stm32f1xx_hal.o(i.HAL_InitTick)
    HAL_MspInit                              0x080024a1   Thumb Code   244  main.o(i.HAL_MspInit)
    HAL_NVIC_SetPriority                     0x080025a1   Thumb Code    60  stm32f1xx_hal_cortex.o(i.HAL_NVIC_SetPriority)
    HAL_NVIC_SetPriorityGrouping             0x080025e1   Thumb Code    26  stm32f1xx_hal_cortex.o(i.HAL_NVIC_SetPriorityGrouping)
    HAL_RCC_ClockConfig                      0x08002605   Thumb Code   318  stm32f1xx_hal_rcc.o(i.HAL_RCC_ClockConfig)
    HAL_RCC_GetHCLKFreq                      0x08002759   Thumb Code     6  stm32f1xx_hal_rcc.o(i.HAL_RCC_GetHCLKFreq)
    HAL_RCC_GetPCLK1Freq                     0x08002765   Thumb Code    22  stm32f1xx_hal_rcc.o(i.HAL_RCC_GetPCLK1Freq)
    HAL_RCC_GetPCLK2Freq                     0x08002785   Thumb Code    22  stm32f1xx_hal_rcc.o(i.HAL_RCC_GetPCLK2Freq)
    HAL_RCC_GetSysClockFreq                  0x080027a5   Thumb Code    82  stm32f1xx_hal_rcc.o(i.HAL_RCC_GetSysClockFreq)
    HAL_RCC_OscConfig                        0x08002819   Thumb Code   882  stm32f1xx_hal_rcc.o(i.HAL_RCC_OscConfig)
    HAL_SYSTICK_CLKSourceConfig              0x08002b9d   Thumb Code    28  stm32f1xx_hal_cortex.o(i.HAL_SYSTICK_CLKSourceConfig)
    HAL_SYSTICK_Callback                     0x08002bb9   Thumb Code     2  stm32f1xx_hal_cortex.o(i.HAL_SYSTICK_Callback)
    HAL_SYSTICK_Config                       0x08002bbb   Thumb Code    40  stm32f1xx_hal_cortex.o(i.HAL_SYSTICK_Config)
    HAL_SYSTICK_IRQHandler                   0x08002be3   Thumb Code     8  stm32f1xx_hal_cortex.o(i.HAL_SYSTICK_IRQHandler)
    HAL_UART_Init                            0x08002beb   Thumb Code   100  stm32f1xx_hal_uart.o(i.HAL_UART_Init)
    HAL_UART_MspInit                         0x08002c4f   Thumb Code     2  stm32f1xx_hal_uart.o(i.HAL_UART_MspInit)
    HAL_UART_Receive                         0x08002c51   Thumb Code   210  stm32f1xx_hal_uart.o(i.HAL_UART_Receive)
    LedInit                                  0x08002d3d   Thumb Code    10  led.o(i.LedInit)
    LedToggle                                0x08002d4d   Thumb Code    60  led.o(i.LedToggle)
    SysTick_Handler                          0x08002dd1   Thumb Code    14  timer.o(i.SysTick_Handler)
    SystemInit                               0x08002e29   Thumb Code    56  system_stm32f1xx.o(i.SystemInit)
    TimerGet                                 0x08002e71   Thumb Code     4  timer.o(i.TimerGet)
    TimerInit                                0x08002e75   Thumb Code    38  timer.o(i.TimerInit)
    __scatterload_copy                       0x08003045   Thumb Code    14  handlers.o(i.__scatterload_copy)
    __scatterload_null                       0x08003053   Thumb Code     2  handlers.o(i.__scatterload_null)
    __scatterload_zeroinit                   0x08003055   Thumb Code    14  handlers.o(i.__scatterload_zeroinit)
    main                                     0x08003063   Thumb Code    18  main.o(i.main)
    AHBPrescTable                            0x08003074   Data          16  system_stm32f1xx.o(.constdata)
    APBPrescTable                            0x08003084   Data           8  system_stm32f1xx.o(.constdata)
    Region$$Table$$Base                      0x0800308c   Number         0  anon$$obj.o(Region$$Table)
    Region$$Table$$Limit                     0x080030ac   Number         0  anon$$obj.o(Region$$Table)
    uwTickFreq                               0x20000000   Data           1  stm32f1xx_hal.o(.data)
    uwTickPrio                               0x20000004   Data           4  stm32f1xx_hal.o(.data)
    uwTick                                   0x20000008   Data           4  stm32f1xx_hal.o(.data)
    SystemCoreClock                          0x2000000c   Data           4  system_stm32f1xx.o(.data)
    __initial_sp                             0x200004a8   Data           0  startup_stm32f103xb.o(STACK)



==============================================================================

Memory Map of the image

  Image Entry point : 0x080020f1

  Load Region LR_IROM1 (Base: 0x08002000, Size: 0x000010cc, Max: 0x0003e000, ABSOLUTE)

    Execution Region ER_IROM1 (Exec base: 0x08002000, Load base: 0x08002000, Size: 0x000010ac, Max: 0x0003e000, ABSOLUTE)

    Exec Addr    Load Addr    Size         Type   Attr      Idx    E Section Name        Object

    0x08002000   0x08002000   0x000000f0   Data   RO         1974    RESET               startup_stm32f103xb.o
    0x080020f0   0x080020f0   0x00000000   Code   RO         1979  * .ARM.Collect$$$$00000000  mc_w.l(entry.o)
    0x080020f0   0x080020f0   0x00000004   Code   RO         1984    .ARM.Collect$$$$00000001  mc_w.l(entry2.o)
    0x080020f4   0x080020f4   0x00000004   Code   RO         1987    .ARM.Collect$$$$00000004  mc_w.l(entry5.o)
    0x080020f8   0x080020f8   0x00000000   Code   RO         1989    .ARM.Collect$$$$00000008  mc_w.l(entry7b.o)
    0x080020f8   0x080020f8   0x00000000   Code   RO         1991    .ARM.Collect$$$$0000000A  mc_w.l(entry8b.o)
    0x080020f8   0x080020f8   0x00000008   Code   RO         1992    .ARM.Collect$$$$0000000B  mc_w.l(entry9a.o)
    0x08002100   0x08002100   0x00000000   Code   RO         1994    .ARM.Collect$$$$0000000D  mc_w.l(entry10a.o)
    0x08002100   0x08002100   0x00000000   Code   RO         1996    .ARM.Collect$$$$0000000F  mc_w.l(entry11a.o)
    0x08002100   0x08002100   0x00000004   Code   RO         1985    .ARM.Collect$$$$00002712  mc_w.l(entry2.o)
    0x08002104   0x08002104   0x0000002c   Code   RO         1975    .text               startup_stm32f103xb.o
    0x08002130   0x08002130   0x00000024   Code   RO         1998    .text               mc_w.l(init.o)
    0x08002154   0x08002154   0x00000024   Code   RO         1783    i.BootActivate      boot.o
    0x08002178   0x08002178   0x00000004   Code   RO         1784    i.BootComCheckActivationRequest  boot.o
    0x0800217c   0x0800217c   0x00000004   Code   RO         1785    i.BootComInit       boot.o
    0x08002180   0x08002180   0x00000074   Code   RO         1786    i.BootComRs232CheckActivationRequest  boot.o
    0x080021f4   0x080021f4   0x00000028   Code   RO         1787    i.BootComRs232Init  boot.o
    0x0800221c   0x0800221c   0x000001f0   Code   RO          989    i.HAL_GPIO_Init     stm32f1xx_hal_gpio.o
    0x0800240c   0x0800240c   0x0000000e   Code   RO          993    i.HAL_GPIO_WritePin  stm32f1xx_hal_gpio.o
    0x0800241a   0x0800241a   0x00000002   PAD
    0x0800241c   0x0800241c   0x0000000c   Code   RO           15    i.HAL_GetTick       stm32f1xx_hal.o
    0x08002428   0x08002428   0x00000010   Code   RO           21    i.HAL_IncTick       stm32f1xx_hal.o
    0x08002438   0x08002438   0x00000024   Code   RO           22    i.HAL_Init          stm32f1xx_hal.o
    0x0800245c   0x0800245c   0x00000044   Code   RO           23    i.HAL_InitTick      stm32f1xx_hal.o
    0x080024a0   0x080024a0   0x00000100   Code   RO         1888    i.HAL_MspInit       main.o
    0x080025a0   0x080025a0   0x00000040   Code   RO          501    i.HAL_NVIC_SetPriority  stm32f1xx_hal_cortex.o
    0x080025e0   0x080025e0   0x00000024   Code   RO          502    i.HAL_NVIC_SetPriorityGrouping  stm32f1xx_hal_cortex.o
    0x08002604   0x08002604   0x00000154   Code   RO         1214    i.HAL_RCC_ClockConfig  stm32f1xx_hal_rcc.o
    0x08002758   0x08002758   0x0000000c   Code   RO         1219    i.HAL_RCC_GetHCLKFreq  stm32f1xx_hal_rcc.o
    0x08002764   0x08002764   0x00000020   Code   RO         1221    i.HAL_RCC_GetPCLK1Freq  stm32f1xx_hal_rcc.o
    0x08002784   0x08002784   0x00000020   Code   RO         1222    i.HAL_RCC_GetPCLK2Freq  stm32f1xx_hal_rcc.o
    0x080027a4   0x080027a4   0x00000074   Code   RO         1223    i.HAL_RCC_GetSysClockFreq  stm32f1xx_hal_rcc.o
    0x08002818   0x08002818   0x00000384   Code   RO         1226    i.HAL_RCC_OscConfig  stm32f1xx_hal_rcc.o
    0x08002b9c   0x08002b9c   0x0000001c   Code   RO          504    i.HAL_SYSTICK_CLKSourceConfig  stm32f1xx_hal_cortex.o
    0x08002bb8   0x08002bb8   0x00000002   Code   RO          505    i.HAL_SYSTICK_Callback  stm32f1xx_hal_cortex.o
    0x08002bba   0x08002bba   0x00000028   Code   RO          506    i.HAL_SYSTICK_Config  stm32f1xx_hal_cortex.o
    0x08002be2   0x08002be2   0x00000008   Code   RO          507    i.HAL_SYSTICK_IRQHandler  stm32f1xx_hal_cortex.o
    0x08002bea   0x08002bea   0x00000064   Code   RO         1417    i.HAL_UART_Init     stm32f1xx_hal_uart.o
    0x08002c4e   0x08002c4e   0x00000002   Code   RO         1419    i.HAL_UART_MspInit  stm32f1xx_hal_uart.o
    0x08002c50   0x08002c50   0x000000d2   Code   RO         1420    i.HAL_UART_Receive  stm32f1xx_hal_uart.o
    0x08002d22   0x08002d22   0x0000001a   Code   RO         1889    i.Init              main.o
    0x08002d3c   0x08002d3c   0x00000010   Code   RO         1856    i.LedInit           led.o
    0x08002d4c   0x08002d4c   0x00000044   Code   RO         1857    i.LedToggle         led.o
    0x08002d90   0x08002d90   0x00000024   Code   RO         1227    i.RCC_Delay         stm32f1xx_hal_rcc.o
    0x08002db4   0x08002db4   0x0000001c   Code   RO         1788    i.Rs232ReceiveByte  boot.o
    0x08002dd0   0x08002dd0   0x0000000e   Code   RO         1939    i.SysTick_Handler   timer.o
    0x08002dde   0x08002dde   0x0000004a   Code   RO         1890    i.SystemClock_Config  main.o
    0x08002e28   0x08002e28   0x00000048   Code   RO         1724    i.SystemInit        system_stm32f1xx.o
    0x08002e70   0x08002e70   0x00000004   Code   RO         1940    i.TimerGet          timer.o
    0x08002e74   0x08002e74   0x00000026   Code   RO         1941    i.TimerInit         timer.o
    0x08002e9a   0x08002e9a   0x00000002   PAD
    0x08002e9c   0x08002e9c   0x00000114   Code   RO         1444    i.UART_SetConfig    stm32f1xx_hal_uart.o
    0x08002fb0   0x08002fb0   0x00000064   Code   RO         1446    i.UART_WaitOnFlagUntilTimeout  stm32f1xx_hal_uart.o
    0x08003014   0x08003014   0x00000010   Code   RO         1891    i.VectorBase_Config  main.o
    0x08003024   0x08003024   0x00000020   Code   RO          508    i.__NVIC_SetPriority  stm32f1xx_hal_cortex.o
    0x08003044   0x08003044   0x0000000e   Code   RO         2002    i.__scatterload_copy  mc_w.l(handlers.o)
    0x08003052   0x08003052   0x00000002   Code   RO         2003    i.__scatterload_null  mc_w.l(handlers.o)
    0x08003054   0x08003054   0x0000000e   Code   RO         2004    i.__scatterload_zeroinit  mc_w.l(handlers.o)
    0x08003062   0x08003062   0x00000012   Code   RO         1892    i.main              main.o
    0x08003074   0x08003074   0x00000010   Data   RO         1725    .constdata          system_stm32f1xx.o
    0x08003084   0x08003084   0x00000008   Data   RO         1726    .constdata          system_stm32f1xx.o
    0x0800308c   0x0800308c   0x00000020   Data   RO         2000    Region$$Table       anon$$obj.o


    Execution Region RW_IRAM1 (Exec base: 0x20000000, Load base: 0x080030ac, Size: 0x000004a8, Max: 0x0000c000, ABSOLUTE)

    Exec Addr    Load Addr    Size         Type   Attr      Idx    E Section Name        Object

    0x20000000   0x080030ac   0x0000000c   Data   RW           29    .data               stm32f1xx_hal.o
    0x2000000c   0x080030b8   0x00000004   Data   RW         1727    .data               system_stm32f1xx.o
    0x20000010   0x080030bc   0x00000008   Data   RW         1790    .data               boot.o
    0x20000018   0x080030c4   0x00000008   Data   RW         1858    .data               led.o
    0x20000020        -       0x00000084   Zero   RW         1789    .bss                boot.o
    0x200000a4   0x080030cc   0x00000004   PAD
    0x200000a8        -       0x00000400   Zero   RW         1972    STACK               startup_stm32f103xb.o


==============================================================================

Image component sizes


      Code (inc. data)   RO Data    RW Data    ZI Data      Debug   Object Name

       228         32          0          8        132      28300   boot.o
        84         14          0          8          0        938   led.o
       390         20          0          0          0       2757   main.o
        44         12        240          0       1024        772   startup_stm32f103xb.o
       132         24          0         12          0     397217   stm32f1xx_hal.o
       210         14          0          0          0      29876   stm32f1xx_hal_cortex.o
       510         32          0          0          0       2756   stm32f1xx_hal_gpio.o
      1468        106          0          0          0       6540   stm32f1xx_hal_rcc.o
       688          4          0          0          0       4190   stm32f1xx_hal_uart.o
        72         16         24          4          0     351279   system_stm32f1xx.o
        56          0          0          0          0       1269   timer.o

    ----------------------------------------------------------------------
      3886        274        296         32       1160     825894   Object Totals
         0          0         32          0          0          0   (incl. Generated)
         4          0          0          0          4          0   (incl. Padding)

    ----------------------------------------------------------------------

      Code (inc. data)   RO Data    RW Data    ZI Data      Debug   Library Member Name

         0          0          0          0          0          0   entry.o
         0          0          0          0          0          0   entry10a.o
         0          0          0          0          0          0   entry11a.o
         8          4          0          0          0          0   entry2.o
         4          0          0          0          0          0   entry5.o
         0          0          0          0          0          0   entry7b.o
         0          0          0          0          0          0   entry8b.o
         8          4          0          0          0          0   entry9a.o
        30          0          0          0          0          0   handlers.o
        36          8          0          0          0         68   init.o

    ----------------------------------------------------------------------
        86         16          0          0          0         68   Library Totals
         0          0          0          0          0          0   (incl. Padding)

    ----------------------------------------------------------------------

      Code (inc. data)   RO Data    RW Data    ZI Data      Debug   Library Name

        86         16          0          0          0         68   mc_w.l

    ----------------------------------------------------------------------
        86         16          0          0          0         68   Library Totals

    ----------------------------------------------------------------------

==============================================================================


      Code (inc. data)   RO Data    RW Data    ZI Data      Debug   

      3972        290        296         32       1160     824138   Grand Totals
      3972        290        296         32       1160     824138   ELF Image Totals
      3972        290        296         32          0          0   ROM Totals

==============================================================================

    Total RO  Size (Code + RO Data)                 4268 (   4.17kB)
    Total RW  Size (RW Data + ZI Data)              1192 (   1.16kB)
    Total ROM Size (Code + RO Data + RW Data)       4300 (   4.20kB)

==============================================================================

