S31508002000A804002005210008112100081321000852
S3150800201015210008172100081921000800000000F2
S315080020200000000000000000000000001B2100085E
S315080020301D210008000000001F210008D12D0008FE
S315080020402321000823210008232100082321000852
S315080020502321000823210008232100082321000842
S315080020602321000823210008232100082321000832
S315080020702321000823210008232100082321000822
S315080020802321000823210008232100082321000812
S315080020902321000823210008232100082321000802
S315080020A023210008232100082321000823210008F2
S315080020B023210008232100082321000823210008E2
S315080020C023210008232100082321000823210008D2
S315080020D023210008232100082321000823210008C2
S315080020E0232100082321000823210008EE11AA5500
S315080020F0DFF80CD000F01CF80048004763300008F1
S31508002100A80400200748854607488047074800472F
S31508002110FEE7FEE7FEE7FEE7FEE7FEE7FEE7FEE789
S31508002120FEE7FEE7A8040020292E0008F120000893
S31508002130064C074D06E0E06840F0010394E8070006
S3150800214098471034AC42F6D3FFF7D6FF8C30000818
S31508002150AC300008BFF34F8F05480168054A01F403
S31508002160E06111430160BFF34F8F00BFFDE7000038
S315080021700CED00E00400FA0500F002B800F03AB8E9
S3150800218070B51A4C00251A4E607800280ED02078B3
S315080021903044401C00F00EFE012817D000F068FEFF
S315080021A061686431884200D9657070BD104800F0D6
S315080021B001FE0128F9D13078401E3F28F5D800F0F5
S315080021C057FE606001206070257070BD2078401C45
S315080021D0C0B2207031788142F7D165707178FF29D5
S315080021E0F3D10228F1D1FFF7B5FF00001000002057
S315080021F0200000200848074901604FF4614141600A
S3150800220000218160C160016181610C224261C16166
S3150800221000F0EBBC00380140640000202DE9F84FBF
S3150800222000240023DFF8C4914FF00F0809F1040ACF
S315080022300AF1040B0BF1040ED1E00127A7403A403E
S31508002240BA4275D1DFF8A8C14D68A5EB0C066545FD
S315080022502BD00DDC032D34D005DC35B3012D19D078
S31508002260022D2FD11BE0112D16D0122D2AD119E0DF
S31508002270B6F5881F19D006DCB6F5803F15D0B6F539
S31508002280801F1FD111E0B6F5001F0ED0B6F5041F4A
S3150800229018D10AE0CB6815E0CB681B1D12E0CB68A5
S315080022A008330FE0CB680C330CE08B6823B1012BA5
S315080022B004D00823476105E0042303E008230761E7
S315080022C000E00023FF2A01D8054601E000F10405D5
S315080022D002D84FEA840603E0A4F108064FEA860608
S315080022E02F6808FA06FC27EA0C0703FA06F647EAF7
S315080022F006072F604D68ED0070D53E4DAE6946F075
S315080023000106AE61AD6905F0010500953A4D24F068
S3150800231003067719BE68A5072D0F08FA05FC26EAF5
S315080023200C06DFF8D8C0604503D14FF0000C17E063
S3150800233054E0DFF8CCC0604502D14FF0010C0FE045
S31508002340DFF8C0C0604502D14FF0020C08E0DFF8A4
S31508002350B8C0604502D14FF0030C01E04FF0040C01
S315080023600CFA05FC4CEA060CC7F808C04D68ED03E4
S3150800237005D5D9F800501543C9F8005004E0D9F836
S3150800238000509543C9F800504D68AD0305D5DAF8F5
S3150800239000501543CAF8005004E0DAF80050954397
S315080023A0CAF800504D68ED0205D5DBF80050154314
S315080023B0CBF8005004E0DBF800509543CBF800500A
S315080023C04D68AD0205D5DEF800501543CEF800502D
S315080023D004E0DEF800509543CEF80050641C0A6805
S315080023E032FA04F57FF429AFBDE8F88F00040140FE
S315080023F000001110001002400000014000080140D2
S31508002400000C01400010014000140140002A01D0D0
S31508002410016170470904016170470000014880683E
S3150800242070470000000000200248816802781144C5
S31508002430816070470000002010B50748016841F028
S3150800244010010160032000F0CBF8002000F006F828
S3150800245000F026F8002010BD0020024070B50446A2
S315080024600D4D4FF47A712878B1FBF0F00B490968E5
S31508002470B1FBF0F000F0A1FB08B1012070BD102CF3
S3150800248007D200222146501E00F08AF86C60002010
S3150800249070BD012070BD0000000000200C00002067
S315080024A070B586B03B48816941F001018161816957
S315080024B001F001010191C16941F08051C161C16911
S315080024C001F080510191816941F0040181618169BE
S315080024D001F004010191816941F01001816181696E
S315080024E001F010010191816941F48041816180699F
S315080024F000F480400190032000F072F80022114693
S315080025006FF00B0000F04CF8002211466FF00A003D
S3150800251000F046F8002211466FF0090000F040F876
S3150800252000221146501F00F03BF800221146101FEA
S3150800253000F036F800221146901E00F031F800220D
S315080025401146501E00F02CF8082002900120039036
S3150800255000240494022505950F4E02A93046FFF77C
S315080025605DFE002208213046FFF750FF2802029040
S31508002570039503200590094D02A92846FFF74EFE4C
S31508002580291502910394049402A92846FFF746FEEA
S3150800259006B070BD0010024000100140000801405E
S315080025A0F0B40D460D4B1B68C3F30223C3F10704B1
S315080025B0042C00D90424191D072901D2002300E0A0
S315080025C0DB1E012606FA04F1491E294099409E4061
S315080025D0761E16403143F0BC00F024BD0CED00E039
S315080025E000F00701054A10684FF6FF03184040EA55
S315080025F00120034908431060704700000CED00E015
S315080026000000FA052DE9F04704460D46002C17D0C0
S31508002610DFF83081D8F8000000F00700A84211D290
S31508002620D8F8000020F007002843C8F80000D8F8BA
S31508002630000000F00700A84204D00120BDE8F0879A
S315080026400120FBE72068404E810712D5400703D5D5
S31508002650706840F4E06070602078000703D5706801
S3150800266040F4605070607068A16820F0F00008437C
S3150800267070602078C0072CD06068012806D0022830
S3150800268009D0316889070BD40120D7E73168890357
S3150800269006D40120D2E73168890101D40120CDE7AB
S315080026A0716821F0030101437160FFF7B7FE074621
S315080026B041F2883906E0FFF7B1FEC01B484501D94B
S315080026C00320BBE77068616800F00C00B0EB810F6F
S315080026D0F1D1D8F8000000F00700A8420ED9D8F8C2
S315080026E0000020F007002843C8F80000D8F80000CA
S315080026F000F00700A84201D001209FE72078400794
S3150800270005D57068E16820F4E060084370602078B9
S31508002710000706D57068216920F4605040EAC100B8
S31508002720706000F03FF87168084AC1F30311515C04
S31508002730C8400749086007480068FFF78FFE002071
S315080027407CE70000002002400010024074300008B8
S315080027500C000020040000200148006870470000B3
S315080027600C00002000B5FFF7F7FF04494968044A42
S31508002770C1F30221515CC84000BD000000100240B0
S315080027808430000800B5FFF7E7FF04494968044AA2
S31508002790C1F3C221515CC84000BD000000100240D0
S315080027A08430000885B014A090E80E00C068CDE912
S315080027B002230191049014A000680090134B5968F5
S315080027C0134801F00C02042A10D0082A0ED101A8D9
S315080027D0C1F38342805CC9030AD55968C1F34041F5
S315080027E01DF801100A4A5043B0FBF1F005B07047D6
S315080027F008494843FAE700000203040506070809E2
S315080028000A0B0C0D0E0F10100102000000100240FA
S3150800281000127A0000093D002DE9F84F0446002C05
S315080028200ED02078D94DC0075ED06868C0F3810005
S3150800283001280BD06868C0F38100022803D00CE099
S315080028400120BDE8F88F6868C00306D528688003AC
S315080028504AD56068A8BB0120F3E76068B0F5803FF9
S3150800286011D0A8B1B0F5A02F1BD0286820F480306D
S315080028702860286820F480202860606830B3FFF755
S31508002880CDFD06461EE0286840F480302860F4E74F
S31508002890286820F480302860286820F48020286082
S315080028A0EBE7286840F480202860286840F48030E8
S315080028B02860E2E7FFF7B2FD801B642802D90320EF
S315080028C0BFE711E028688003F4D50DE0FFF7A6FD01
S315080028D0064606E0FFF7A2FD801B642801D90320FF
S315080028E0AFE728688003F5D42078DFF8A48280074C
S315080028F04FF0010A4FF0000945D5686810F00C0F33
S3150800290007D06868C0F38100022812D16868C0033E
S315080029100FD42868800704D52069012801D0012032
S315080029208FE72868616920F0F80040EAC10028604E
S3150800293029E02069B8B1C8F800A0FFF76FFD064680
S3150800294006E0FFF76BFD801B022801D9032078E714
S3150800295028688007F5D52868616920F0F80040EAFC
S31508002960C10028600FE0C8F80090FFF757FD06463B
S3150800297006E0FFF753FD801B022801D9032060E714
S3150800298028688007F5D42078000726D58148A169EC
S3150800299099B1C0F800A0FFF741FD064606E0FFF72B
S315080029A03DFD801B022801D903204AE7686A800793
S315080029B0F5D5012000F0ECF90FE0C0F80090FFF71C
S315080029C02DFD064606E0FFF729FD801B022801D9E2
S315080029D0032036E7686A8007F5D42078400773D560
S315080029E00026E869C00008D4E86940F08050E8612C
S315080029F0E86900F0805000900126DFF89CB1DBF80A
S31508002A000000C00514D4DBF8000040F48070CBF851
S31508002A100000FFF703FD074606E0FFF7FFFCC01BB3
S31508002A20642801D903200CE7DBF80000C005F4D5BB
S31508002A30E068012812D0B0B105281DD0286A20F018
S31508002A4001002862286A20F004002862E06841F242
S31508002A50883B28B3FFF7E2FC07461DE0286A40F0EA
S31508002A6001002862F2E7286A20F001002862286A35
S31508002A7020F004002862E9E7286A40F0040028628A
S31508002A80286A40F001002862E0E7FFF7C7FCC01B90
S31508002A90584501D90320D4E6286A8007F5D50DE004
S31508002AA0FFF7BCFC074606E0FFF7B8FCC01B584515
S31508002AB001D90320C5E6286A8007F5D4012E03D17B
S31508002AC0E86920F08050E861E069A0B36968C1F35D
S31508002AD08101022946D0022805D0C8F86090FFF780
S31508002AE09DFC04463AE0C8F86090FFF797FC064656
S31508002AF006E0FFF793FC801B022801D90320A0E615
S31508002B0028688001F5D4206AB0F5803F05D1686849
S31508002B10A16820F4003008436860D4E90801084336
S31508002B20696821F4741108436860C8F860A0FFF763
S31508002B3075FC044607E026E0FFF770FC001B022838
S31508002B4001D903207DE628688001F5D51BE0FFF74B
S31508002B5065FC001B022801D9032072E6286880015B
S31508002B60F5D410E001280CD06868226A00F4803198
S31508002B70914204D1616A00F47010884203D00120A2
S31508002B805FE601205DE600205BE6000000100240DB
S31508002B900000424280044242007000404FF0E021AB
S31508002BA0042804D0086920F0040008617047086901
S31508002BB040F0040008617047704710B5401EB0F138
S31508002BC0807F01D3012010BD4FF0E02460610F2102
S31508002BD0601700F027FA0020A06107202061002076
S31508002BE010BD10B5FFF7E8FF10BD70B50446002C00
S31508002BF004D094F83900002510B106E0012070BD14
S31508002C0084F83850204600F022F8242084F8390049
S31508002C102068C16821F40051C160204600F03EF9E1
S31508002C202068016921F4904101612068416921F019
S31508002C302A0141612068C16841F40051C160E56319
S31508002C40202084F8390084F83A00002070BD7047C7
S31508002C502DE9F84304460D4691461E4694F83A0077
S31508002C60202802D00220BDE8F883B5B1B9F1000FDB
S31508002C7013D094F83800012811D0012084F83800C0
S31508002C800027E763222084F83A00FFF7C7FB80464F
S31508002C90A4F82C90A4F82E9035E00120E3E7022052
S31508002CA0E1E7E08D401EE085A068B0F5805F09D0B9
S31508002CB04346002220212046009600F079F9D0B13B
S31508002CC00320D0E74346002220212046009600F044
S31508002CD06FF908B10320C6E7206928B12068406863
S31508002CE0C1B229806D1C0EE020684068C0F3080157
S31508002CF02980AD1C07E0206970B12068406800F0A3
S31508002D007F0005F8010BE08D0028CAD12020383451
S31508002D10A07027700020A6E72068406805F8010B18
S31508002D20F1E710B500F076F9FFF786FB00F057F8E3
S31508002D3000F0A0F8BDE81040AFF300800022202183
S31508002D400148FFF763BB00000008014070B500F0BA
S31508002D508FF804460C4D6868201AB0F5FA7F0AD336
S31508002D6028780A4B40B1002028700022082118460E
S31508002D70FFF74CFB6C6070BD01202870012208210A
S31508002D801846FFF743FBF5E718000020001001403E
S31508002D9008B507494FF4FA520968B1FBF2F1414305
S31508002DA0009100BF0098411E0091FAD208BD0000AC
S31508002DB00C00002010B50146002301220348FFF746
S31508002DC047FF08B1002010BD012010BD6400002097
S31508002DD010B5FFF729FBBDE81040FFF702BF30B575
S31508002DE08FB00121059108040690002407940991E3
S31508002DF002250C950D904FF4E0100E9005A8FFF7EC
S31508002E000BFD00B1FEE70F200090019502944FF4E8
S31508002E1080600390049402216846FFF7F3FB0028BC
S31508002E2000D0FEE70FB030BD0D48016841F0010142
S31508002E30016041680B4A1140416001680A4A114025
S31508002E400160016821F480210160416821F4FE01D6
S31508002E5041604FF41F0181600449C0030860704750
S31508002E60001002400000FFF8FFFFF6FE08ED00E044
S31508002E70FFF7D4BA10B5FFF76FFC4FF47A71B0FBC1
S31508002E80F1F0FFF79AFE0420FFF788FE0022BDE85E
S31508002E9010401146501EFFF783BB00002DE9F04194
S31508002EA0044620680169E26821F440511143016132
S31508002EB0A16820690143606901432068C26841F23C
S31508002EC00C639A430A43C26020684169A26921F4E7
S31508002ED0407111434161354920686425322688428C
S31508002EE032D1FFF74FFC00EBC00101EB001061681F
S31508002EF06FF018078900B0FBF1F2B2FBF5F2B0FBF0
S31508002F00F1F37A4303EB8202B0FBF1F306EB02120C
S31508002F10B2FBF5F2B3FBF5F302F0F00202EB031293
S31508002F20B0FBF1F3B0FBF1F0B0FBF5F0784303EB3F
S31508002F30800006EB0010B0FBF5F0216800F00F00EA
S31508002F4010448860BDE8F081FFF70CFC00EBC00177
S31508002F5001EB001061686FF018078900B0FBF1F209
S31508002F60B2FBF5F2B0FBF1F37A4303EB8202B0FB56
S31508002F70F1F306EB0212B2FBF5F2B3FBF5F302F03E
S31508002F80F00202EB0312B0FBF1F3B0FBF1F0B0FB79
S31508002F90F5F0784303EB800006EB0010B0FBF5F084
S31508002FA0216800F00F0010448860CBE70038014024
S31508002FB02DE9F04104460E4617469846069D1DE043
S31508002FC0681C1BD02DB1FFF729FAA0EB0800A84210
S31508002FD014D92068C16821F4D071C160206841699C
S31508002FE021F001014161202084F8390084F83A0073
S31508002FF0002084F838000320BDE8F08120680068C6
S3150800300036EA000004D00020B842D9D00020F3E701
S315080030100120F9E7024901480860704700200008C6
S3150800302008ED00E00907090E002804DB00F1E0209E
S3150800303080F80014704700F00F0000F1E02080F8D7
S31508003040141D704702E008C8121F08C1002AFAD1E9
S3150800305070477047002001E001C1121F002AFBD10A
S315080030607047FFF75EFEFFF789F8FFF76FFEFFF779
S3150800307083F8FAE7000000000000000001020304DC
S31508003080060708090000000001020304AC30000826
S31508003090000000202000000044300008CC30000862
S315080030A020000020880400005430000801000000B9
S315080030B010000000000000000024F40000000000DA
S311080030C0000000000000000000000000F6
S705080020F1E1
